{
  "_format": "hh-sol-artifact-1",
  "contractName": "ChessFishTournament",
  "sourceName": "contracts/Tournament.sol",
  "abi": [
    {
      "inputs": [
        {
          "internalType": "address",
          "name": "_chessWager",
          "type": "address"
        },
        {
          "internalType": "address",
          "name": "_paymentSplitter",
          "type": "address"
        }
      ],
      "stateMutability": "nonpayable",
      "type": "constructor"
    },
    {
      "inputs": [],
      "name": "ChessWagerAddress",
      "outputs": [
        {
          "internalType": "address",
          "name": "",
          "type": "address"
        }
      ],
      "stateMutability": "view",
      "type": "function"
    },
    {
      "inputs": [],
      "name": "PaymentSplitter",
      "outputs": [
        {
          "internalType": "address",
          "name": "",
          "type": "address"
        }
      ],
      "stateMutability": "view",
      "type": "function"
    },
    {
      "inputs": [
        {
          "internalType": "uint256",
          "name": "numberOfPlayers",
          "type": "uint256"
        },
        {
          "internalType": "uint256",
          "name": "numberOfGames",
          "type": "uint256"
        },
        {
          "internalType": "address",
          "name": "token",
          "type": "address"
        },
        {
          "internalType": "uint256",
          "name": "tokenAmount",
          "type": "uint256"
        },
        {
          "internalType": "uint256",
          "name": "timeLimit",
          "type": "uint256"
        }
      ],
      "name": "createTournament",
      "outputs": [
        {
          "internalType": "uint256",
          "name": "",
          "type": "uint256"
        }
      ],
      "stateMutability": "nonpayable",
      "type": "function"
    },
    {
      "inputs": [],
      "name": "deployer",
      "outputs": [
        {
          "internalType": "address",
          "name": "",
          "type": "address"
        }
      ],
      "stateMutability": "view",
      "type": "function"
    },
    {
      "inputs": [
        {
          "internalType": "uint256",
          "name": "tournamentID",
          "type": "uint256"
        }
      ],
      "name": "exitTournament",
      "outputs": [],
      "stateMutability": "nonpayable",
      "type": "function"
    },
    {
      "inputs": [
        {
          "internalType": "uint256",
          "name": "tournamentID",
          "type": "uint256"
        }
      ],
      "name": "getPlayersSortedByWins",
      "outputs": [
        {
          "internalType": "address[]",
          "name": "",
          "type": "address[]"
        }
      ],
      "stateMutability": "view",
      "type": "function"
    },
    {
      "inputs": [
        {
          "internalType": "uint256",
          "name": "tournamentID",
          "type": "uint256"
        }
      ],
      "name": "getTournamentPlayers",
      "outputs": [
        {
          "internalType": "address[]",
          "name": "",
          "type": "address[]"
        }
      ],
      "stateMutability": "view",
      "type": "function"
    },
    {
      "inputs": [
        {
          "internalType": "uint256",
          "name": "tournamentID",
          "type": "uint256"
        }
      ],
      "name": "getTournamentWagerAddresses",
      "outputs": [
        {
          "internalType": "address[]",
          "name": "",
          "type": "address[]"
        }
      ],
      "stateMutability": "view",
      "type": "function"
    },
    {
      "inputs": [
        {
          "internalType": "uint256",
          "name": "tournamentID",
          "type": "uint256"
        }
      ],
      "name": "joinTournament",
      "outputs": [],
      "stateMutability": "nonpayable",
      "type": "function"
    },
    {
      "inputs": [
        {
          "internalType": "uint256",
          "name": "",
          "type": "uint256"
        }
      ],
      "name": "payoutProfile10_25",
      "outputs": [
        {
          "internalType": "uint256",
          "name": "",
          "type": "uint256"
        }
      ],
      "stateMutability": "view",
      "type": "function"
    },
    {
      "inputs": [
        {
          "internalType": "uint256",
          "name": "",
          "type": "uint256"
        }
      ],
      "name": "payoutProfile3",
      "outputs": [
        {
          "internalType": "uint256",
          "name": "",
          "type": "uint256"
        }
      ],
      "stateMutability": "view",
      "type": "function"
    },
    {
      "inputs": [
        {
          "internalType": "uint256",
          "name": "",
          "type": "uint256"
        }
      ],
      "name": "payoutProfile4_9",
      "outputs": [
        {
          "internalType": "uint256",
          "name": "",
          "type": "uint256"
        }
      ],
      "stateMutability": "view",
      "type": "function"
    },
    {
      "inputs": [
        {
          "internalType": "uint256",
          "name": "tournamentID",
          "type": "uint256"
        }
      ],
      "name": "payoutTournament",
      "outputs": [],
      "stateMutability": "nonpayable",
      "type": "function"
    },
    {
      "inputs": [
        {
          "internalType": "uint256",
          "name": "tournamentID",
          "type": "uint256"
        }
      ],
      "name": "startTournament",
      "outputs": [],
      "stateMutability": "nonpayable",
      "type": "function"
    },
    {
      "inputs": [],
      "name": "tournamentNonce",
      "outputs": [
        {
          "internalType": "uint256",
          "name": "",
          "type": "uint256"
        }
      ],
      "stateMutability": "view",
      "type": "function"
    },
    {
      "inputs": [
        {
          "internalType": "uint256",
          "name": "",
          "type": "uint256"
        },
        {
          "internalType": "address",
          "name": "",
          "type": "address"
        }
      ],
      "name": "tournamentWins",
      "outputs": [
        {
          "internalType": "uint256",
          "name": "",
          "type": "uint256"
        }
      ],
      "stateMutability": "view",
      "type": "function"
    },
    {
      "inputs": [
        {
          "internalType": "uint256",
          "name": "",
          "type": "uint256"
        }
      ],
      "name": "tournaments",
      "outputs": [
        {
          "internalType": "uint256",
          "name": "numberOfPlayers",
          "type": "uint256"
        },
        {
          "internalType": "uint256",
          "name": "numberOfGames",
          "type": "uint256"
        },
        {
          "internalType": "address",
          "name": "token",
          "type": "address"
        },
        {
          "internalType": "uint256",
          "name": "tokenAmount",
          "type": "uint256"
        },
        {
          "internalType": "bool",
          "name": "isInProgress",
          "type": "bool"
        },
        {
          "internalType": "uint256",
          "name": "startTime",
          "type": "uint256"
        },
        {
          "internalType": "uint256",
          "name": "timeLimit",
          "type": "uint256"
        },
        {
          "internalType": "bool",
          "name": "isComplete",
          "type": "bool"
        }
      ],
      "stateMutability": "view",
      "type": "function"
    },
    {
      "inputs": [
        {
          "internalType": "uint256",
          "name": "tournamentID",
          "type": "uint256"
        }
      ],
      "name": "viewTournamentScore",
      "outputs": [
        {
          "internalType": "address[]",
          "name": "",
          "type": "address[]"
        },
        {
          "internalType": "uint256[]",
          "name": "",
          "type": "uint256[]"
        }
      ],
      "stateMutability": "view",
      "type": "function"
    }
  ],
  "bytecode": "0x6102bc60045560c0604052610230608090815261017260a052620000289060059060026200011f565b506040805160808101825261014a8152610122602082015260b491810191909152608260608201526200006090600890600462000168565b506040805160e08101825261016d815260e660208201526087918101919091526064606082015260326080820152601960a0820181905260c0820152620000ac90600c9060076200019e565b50348015620000ba57600080fd5b506040516200291338038062002913833981016040819052620000dd9162000208565b601380546001600160a01b039384166001600160a01b031991821617909155601480549290931691811691909117909155601580549091163317905562000240565b826003810192821562000156579160200282015b8281111562000156578251829061ffff1690559160200191906001019062000133565b5062000164929150620001d4565b5090565b826004810192821562000156579160200282018281111562000156578251829061ffff1690559160200191906001019062000133565b826007810192821562000156579160200282018281111562000156578251829061ffff1690559160200191906001019062000133565b5b80821115620001645760008155600101620001d5565b80516001600160a01b03811681146200020357600080fd5b919050565b600080604083850312156200021c57600080fd5b6200022783620001eb565b91506200023760208401620001eb565b90509250929050565b6126c380620002506000396000f3fe608060405234801561001057600080fd5b50600436106101365760003560e01c80637cddfa81116100b2578063b8a8de4811610081578063d115cac611610066578063d115cac614610348578063d5f394881461035b578063f5ed83de1461036e57600080fd5b8063b8a8de4814610322578063c0dcf3301461033557600080fd5b80637cddfa81146102d2578063945aff34146102e55780639f829fdd146102ee578063b849ffc31461030157600080fd5b80633dea815e11610109578063651ea943116100ee578063651ea943146101ff5780637503e1b7146102125780637509a43c146102bf57600080fd5b80633dea815e146101d75780634d7ae7a8146101ec57600080fd5b80631f22d9c01461013b57806326f7519a146101615780632d822f7a146101815780633b8e67d8146101ac575b600080fd5b61014e61014936600461228a565b610381565b6040519081526020015b60405180910390f35b61017461016f36600461228a565b610398565b60405161015891906122e8565b61014e61018f36600461231a565b600360209081526000928352604080842090915290825290205481565b6013546101bf906001600160a01b031681565b6040516001600160a01b039091168152602001610158565b6101ea6101e536600461228a565b610407565b005b6014546101bf906001600160a01b031681565b6101ea61020d36600461228a565b6108bc565b61027261022036600461228a565b60016020526000908152604090208054600282015460038301546004840154600585015460068601546007870154600890970154959694956001600160a01b0390941694929360ff9283169391921688565b6040805198895260208901979097526001600160a01b039095169587019590955260608601929092521515608085015260a084015260c0830191909152151560e082015261010001610158565b6101746102cd36600461228a565b610abe565b6101ea6102e036600461228a565b610e9a565b61014e60005481565b6101746102fc36600461228a565b610f9a565b61031461030f36600461228a565b611004565b60405161015892919061234a565b61014e61033036600461228a565b61129b565b61014e6103433660046123a1565b6112ab565b6101ea61035636600461228a565b611507565b6015546101bf906001600160a01b031681565b61014e61037c36600461228a565b61180f565b6008816004811061039157600080fd5b0154905081565b6000818152600160208181526040928390209091018054835181840281018401909452808452606093928301828280156103fb57602002820191906000526020600020905b81546001600160a01b031681526001909101906020018083116103dd575b50505050509050919050565b6000818152600160205260409020600601546104239042612419565b600082815260016020526040902060070154106104875760405162461bcd60e51b815260206004820152601b60248201527f546f75726e616d656e74206e6f742066696e697368656420796574000000000060448201526064015b60405180910390fd5b60008181526001602052604090206008015460ff16156104e95760405162461bcd60e51b815260206004820152601460248201527f546f75726e616d656e7420636f6d706c65746564000000000000000000000000604482015260640161047e565b6104f28161181f565b505060008181526001602081905260409091206008810180547fffffffffffffffffffffffffffffffffffffffffffffffffffffffffffffff0016831790550154606060038290036105ab5760408051600380825260808201909252906020820160608036833701905050905060005b60038110156105a5576005816003811061057e5761057e61245b565b01548282815181106105925761059261245b565b6020908102919091010152600101610562565b506106a8565b6003821180156105bc575060098211155b156106285760408051600480825260a08201909252906020820160808036833701905050905060005b60048110156105a557600881600481106106015761060161245b565b01548282815181106106155761061561245b565b60209081029190910101526001016105e5565b600982118015610639575060198211155b156106a8576040805160078082526101008201909252906020820160e08036833701905050905060005b60078110156106a657600c816007811061067f5761067f61245b565b01548282815181106106935761069361245b565b6020908102919091010152600101610663565b505b60006106b384610abe565b600085815260016020819052604082206003810154600482015491909201549394506001600160a01b03909116926106eb919061248a565b6040517f70a0823100000000000000000000000000000000000000000000000000000000815230600482015290915081906001600160a01b038416906370a0823190602401602060405180830381865afa15801561074d573d6000803e3d6000fd5b505050506040513d601f19601f8201168201806040525081019061077191906124a1565b821015610780576107806124ba565b60005b85518161ffff1610156108215760006103e8878361ffff16815181106107ab576107ab61245b565b6020026020010151856107be919061248a565b6107c891906124e9565b905080156108185761080b868361ffff16815181106107e9576107e961245b565b602002602001015182876001600160a01b0316611b3a9092919063ffffffff16565b6108158184612419565b92505b50600101610783565b506014546040517fa9059cbb0000000000000000000000000000000000000000000000000000000081526001600160a01b039182166004820152602481018390529084169063a9059cbb906044016020604051808303816000875af115801561088e573d6000803e3d6000fd5b505050506040513d601f19601f820116820180604052508101906108b29190612524565b5050505050505050565b600081815260016020819052604090912001546003111561091f5760405162461bcd60e51b815260206004820152601260248201527f6e6f7420656e6f75676820706c61796572730000000000000000000000000000604482015260640161047e565b60008181526001602081905260409091208054910154146109a857600081815260016020526040902060060154620151809061095b9042612419565b116109a85760405162461bcd60e51b815260206004820152601e60248201527f6d75737420776169742031646179206265666f7265207374617274696e670000604482015260640161047e565b6000818152600160208190526040822060050180547fffffffffffffffffffffffffffffffffffffffffffffffffffffffffffffff001690911790555b600082815260026020526040902054811015610aba57601354600083815260026020526040902080546001600160a01b0390921691633857eb37919084908110610a3157610a3161245b565b60009182526020909120015460405160e083901b7fffffffff000000000000000000000000000000000000000000000000000000001681526001600160a01b039091166004820152602401600060405180830381600087803b158015610a9657600080fd5b505af1158015610aaa573d6000803e3d6000fd5b5050600190920191506109e59050565b5050565b600081815260016020526040902060060154606090610add9042612419565b60008381526001602052604090206007015410610b3c5760405162461bcd60e51b815260206004820152601b60248201527f546f75726e616d656e74206e6f742066696e6973686564207965740000000000604482015260640161047e565b600082815260016020818152604080842090920180548351818402810184019094528084529091830182828015610b9c57602002820191906000526020600020905b81546001600160a01b03168152600190910190602001808311610b7e575b505050505090506000815167ffffffffffffffff811115610bbf57610bbf61242c565b604051908082528060200260200182016040528015610c0457816020015b6040805180820190915260008082526020820152815260200190600190039081610bdd5790505b50905060005b8251811015610cbe576040518060400160405280848381518110610c3057610c3061245b565b60200260200101516001600160a01b03168152602001600360008881526020019081526020016000206000868581518110610c6d57610c6d61245b565b60200260200101516001600160a01b03166001600160a01b0316815260200190815260200160002054815250828281518110610cab57610cab61245b565b6020908102919091010152600101610c0a565b506000805b60018351610cd19190612419565b811015610deb576000915060005b6001828551610cee9190612419565b610cf89190612419565b811015610ddc5783610d0b826001612546565b81518110610d1b57610d1b61245b565b602002602001015160200151848281518110610d3957610d3961245b565b6020026020010151602001511015610dd45783610d57826001612546565b81518110610d6757610d6761245b565b6020026020010151848281518110610d8157610d8161245b565b6020026020010151858381518110610d9b57610d9b61245b565b6020026020010186846001610db09190612546565b81518110610dc057610dc061245b565b602002602001018290528290525050600192505b600101610cdf565b508115610deb57600101610cc3565b506000835167ffffffffffffffff811115610e0857610e0861242c565b604051908082528060200260200182016040528015610e31578160200160208202803683370190505b50905060005b8351811015610e9057838181518110610e5257610e5261245b565b602002602001015160000151828281518110610e7057610e7061245b565b6001600160a01b0390921660209283029190910190910152600101610e37565b5095945050505050565b60008181526001602052604090206005015460ff1615610efc5760405162461bcd60e51b815260206004820152601660248201527f546f75726e616d656e7420696e2070726f677265737300000000000000000000604482015260640161047e565b610f068133611c01565b610f525760405162461bcd60e51b815260206004820152601c60248201527f6d73672e73656e646572206e6f7420696e20746f75726e616d656e7400000000604482015260640161047e565b600081815260016020526040902060038101546004909101546001600160a01b0390911690610f818333611c88565b610f956001600160a01b0383163383611b3a565b505050565b6000818152600260209081526040918290208054835181840281018401909452808452606093928301828280156103fb576020028201919060005260206000209081546001600160a01b031681526001909101906020018083116103dd5750505050509050919050565b60608060006001600085815260200190815260200160002060010180548060200260200160405190810160405280929190818152602001828054801561107357602002820191906000526020600020905b81546001600160a01b03168152600190910190602001808311611055575b505050600087815260026020526040812054845194955093909250905067ffffffffffffffff8111156110a8576110a861242c565b6040519080825280602002602001820160405280156110d1578160200160208202803683370190505b50905060005b8281101561128e576013546000888152600260205260408120805491928392839283926001600160a01b03169163e9f0dac791908890811061111b5761111b61245b565b60009182526020909120015460405160e083901b7fffffffff000000000000000000000000000000000000000000000000000000001681526001600160a01b039091166004820152602401608060405180830381865afa158015611183573d6000803e3d6000fd5b505050506040513d601f19601f820116820180604052508101906111a79190612559565b935093509350935060005b885181101561127d57846001600160a01b03168982815181106111d7576111d761245b565b60200260200101516001600160a01b03160361121857828782815181106112005761120061245b565b602002602001018181516112149190612546565b9052505b836001600160a01b03168982815181106112345761123461245b565b60200260200101516001600160a01b031603611275578187828151811061125d5761125d61245b565b602002602001018181516112719190612546565b9052505b6001016111b2565b5050600190930192506110d7915050565b5091959194509092505050565b600c816007811061039157600080fd5b600060198611156112fe5760405162461bcd60e51b815260206004820152601060248201527f546f6f206d616e7920706c617965727300000000000000000000000000000000604482015260640161047e565b6113136001600160a01b038516333086611e59565b61136f60405180610120016040528060008152602001606081526020016000815260200160006001600160a01b031681526020016000815260200160001515815260200160008152602001600081526020016000151581525090565b6040805160018082528183019092526000916020808301908036833701905050905033816000815181106113a5576113a561245b565b6001600160a01b0392831660209182029290920181019190915289845283810183815291881660608501526080840187905260408085018a9052600060a086018190524260c087015260e08601889052610100860181905280548152600180845291902085518155925180518694936114229385019201906121f8565b506040820151600282015560608201516003820180546001600160a01b039092167fffffffffffffffffffffffff00000000000000000000000000000000000000009092169190911790556080820151600482015560a08201516005820180549115157fffffffffffffffffffffffffffffffffffffffffffffffffffffffffffffff0092831617905560c0830151600683015560e083015160078301556101009092015160089091018054911515919092161790556000805490806114e7836125a1565b919050555060016000546114fb9190612419565b98975050505050505050565b6000818152600160208190526040909120908101549054101561156c5760405162461bcd60e51b815260206004820152601d60248201527f6d6178206e756d626572206f6620706c61796572732072656163686564000000604482015260640161047e565b60008181526001602052604090206005015460ff16156115ce5760405162461bcd60e51b815260206004820152601660248201527f746f75726e616d656e7420696e2070726f677265737300000000000000000000604482015260640161047e565b6115d88133611eaa565b156116255760405162461bcd60e51b815260206004820152600e60248201527f616c7265616479204a6f696e6564000000000000000000000000000000000000604482015260640161047e565b60008181526001602052604090206003810154600482015460028301546007909301546001600160a01b0390921692909161166284333086611e59565b60005b600086815260016020819052604090912001548110156117c15760008681526001602081905260408220018054839081106116a2576116a261245b565b60009182526020822001546013546040517fe3e9956c0000000000000000000000000000000000000000000000000000000081526001600160a01b03928316600482018190523360248301528a84166044830152606482018a90526084820189905260a48201889052945091169063e3e9956c9060c4016020604051808303816000875af1158015611738573d6000803e3d6000fd5b505050506040513d601f19601f8201168201806040525081019061175c91906125d9565b60008981526002602090815260408220805460018082018355918452919092200180547fffffffffffffffffffffffff0000000000000000000000000000000000000000166001600160a01b0393909316929092179091559290920191506116659050565b50505060009283525050600160208181526040832082018054928301815583529091200180547fffffffffffffffffffffffff00000000000000000000000000000000000000001633179055565b6005816003811061039157600080fd5b60008181526001602052604090206006015460609081906118409042612419565b6000848152600160205260409020600701541061189f5760405162461bcd60e51b815260206004820152601b60248201527f546f75726e616d656e74206e6f742066696e6973686564207965740000000000604482015260640161047e565b6000838152600160208181526040808420909201805483518184028101840190945280845290918301828280156118ff57602002820191906000526020600020905b81546001600160a01b031681526001909101906020018083116118e1575b5050506000878152600260205260408120549394509150505b81811015611a70576013546000878152600260205260408120805491928392839283926001600160a01b03169163e9f0dac791908890811061195c5761195c61245b565b60009182526020909120015460405160e083901b7fffffffff000000000000000000000000000000000000000000000000000000001681526001600160a01b039091166004820152602401608060405180830381865afa1580156119c4573d6000803e3d6000fd5b505050506040513d601f19601f820116820180604052508101906119e89190612559565b60008e81526003602090815260408083206001600160a01b03881684529091528120805495995093975091955093508492611a24908490612546565b909155505060008a81526003602090815260408083206001600160a01b038716845290915281208054839290611a5b908490612546565b90915550506001909401935061191892505050565b506000825167ffffffffffffffff811115611a8d57611a8d61242c565b604051908082528060200260200182016040528015611ab6578160200160208202803683370190505b50905060005b835181101561128e57600360008881526020019081526020016000206000858381518110611aec57611aec61245b565b60200260200101516001600160a01b03166001600160a01b0316815260200190815260200160002054828281518110611b2757611b2761245b565b6020908102919091010152600101611abc565b6040516001600160a01b038316602482015260448101829052610f959084907fa9059cbb00000000000000000000000000000000000000000000000000000000906064015b604080517fffffffffffffffffffffffffffffffffffffffffffffffffffffffffffffffe08184030181529190526020810180517bffffffffffffffffffffffffffffffffffffffffffffffffffffffff167fffffffff0000000000000000000000000000000000000000000000000000000090931692909217909152611f6c565b6000805b60008481526001602081905260409091200154811015611c7c57826001600160a01b0316600160008681526020019081526020016000206001018281548110611c5057611c5061245b565b6000918252602090912001546001600160a01b031603611c74576001915050611c82565b600101611c05565b50600090505b92915050565b6000805b60008481526001602081905260409091200154811015611d0257826001600160a01b0316600160008681526020019081526020016000206001018281548110611cd757611cd761245b565b6000918252602090912001546001600160a01b031603611cfa5760019150611d02565b600101611c8c565b811515600103611e5357600084815260016020819052604090912001548110611d2d57611d2d6124ba565b6000848152600160208190526040909120810180549091611d4d91612419565b81548110611d5d57611d5d61245b565b600091825260208083209091015486835260019182905260409092200180546001600160a01b039092169183908110611d9857611d9861245b565b600091825260208083209190910180547fffffffffffffffffffffffff0000000000000000000000000000000000000000166001600160a01b0394909416939093179092558581526001918290526040902001805480611dfa57611dfa6125f6565b60008281526020902081017fffffffffffffffffffffffffffffffffffffffffffffffffffffffffffffffff90810180547fffffffffffffffffffffffff00000000000000000000000000000000000000001690550190555b50505050565b6040516001600160a01b0380851660248301528316604482015260648101829052611e539085907f23b872dd0000000000000000000000000000000000000000000000000000000090608401611b7f565b600082815260016020818152604080842090920180548351818402810184019094528084528493849390929190830182828015611f1057602002820191906000526020600020905b81546001600160a01b03168152600190910190602001808311611ef2575b5050505050905060005b8151811015611f6257846001600160a01b0316828281518110611f3f57611f3f61245b565b60200260200101516001600160a01b031603611f5a57600192505b600101611f1a565b5090949350505050565b6000611fc1826040518060400160405280602081526020017f5361666545524332303a206c6f772d6c6576656c2063616c6c206661696c6564815250856001600160a01b03166120519092919063ffffffff16565b805190915015610f955780806020019051810190611fdf9190612524565b610f955760405162461bcd60e51b815260206004820152602a60248201527f5361666545524332303a204552433230206f7065726174696f6e20646964206e60448201527f6f74207375636365656400000000000000000000000000000000000000000000606482015260840161047e565b60606120608484600085612068565b949350505050565b6060824710156120e05760405162461bcd60e51b815260206004820152602660248201527f416464726573733a20696e73756666696369656e742062616c616e636520666f60448201527f722063616c6c0000000000000000000000000000000000000000000000000000606482015260840161047e565b600080866001600160a01b031685876040516120fc9190612649565b60006040518083038185875af1925050503d8060008114612139576040519150601f19603f3d011682016040523d82523d6000602084013e61213e565b606091505b509150915061214f8783838761215a565b979650505050505050565b606083156121c95782516000036121c2576001600160a01b0385163b6121c25760405162461bcd60e51b815260206004820152601d60248201527f416464726573733a2063616c6c20746f206e6f6e2d636f6e7472616374000000604482015260640161047e565b5081612060565b61206083838151156121de5781518083602001fd5b8060405162461bcd60e51b815260040161047e9190612665565b828054828255906000526020600020908101928215612265579160200282015b8281111561226557825182547fffffffffffffffffffffffff0000000000000000000000000000000000000000166001600160a01b03909116178255602090920191600190910190612218565b50612271929150612275565b5090565b5b808211156122715760008155600101612276565b60006020828403121561229c57600080fd5b5035919050565b60008151808452602080850194506020840160005b838110156122dd5781516001600160a01b0316875295820195908201906001016122b8565b509495945050505050565b6020815260006122fb60208301846122a3565b9392505050565b6001600160a01b038116811461231757600080fd5b50565b6000806040838503121561232d57600080fd5b82359150602083013561233f81612302565b809150509250929050565b60408152600061235d60408301856122a3565b82810360208481019190915284518083528582019282019060005b8181101561239457845183529383019391830191600101612378565b5090979650505050505050565b600080600080600060a086880312156123b957600080fd5b853594506020860135935060408601356123d281612302565b94979396509394606081013594506080013592915050565b7f4e487b7100000000000000000000000000000000000000000000000000000000600052601160045260246000fd5b81810381811115611c8257611c826123ea565b7f4e487b7100000000000000000000000000000000000000000000000000000000600052604160045260246000fd5b7f4e487b7100000000000000000000000000000000000000000000000000000000600052603260045260246000fd5b8082028115828204841417611c8257611c826123ea565b6000602082840312156124b357600080fd5b5051919050565b7f4e487b7100000000000000000000000000000000000000000000000000000000600052600160045260246000fd5b60008261251f577f4e487b7100000000000000000000000000000000000000000000000000000000600052601260045260246000fd5b500490565b60006020828403121561253657600080fd5b815180151581146122fb57600080fd5b80820180821115611c8257611c826123ea565b6000806000806080858703121561256f57600080fd5b845161257a81612302565b602086015190945061258b81612302565b6040860151606090960151949790965092505050565b60007fffffffffffffffffffffffffffffffffffffffffffffffffffffffffffffffff82036125d2576125d26123ea565b5060010190565b6000602082840312156125eb57600080fd5b81516122fb81612302565b7f4e487b7100000000000000000000000000000000000000000000000000000000600052603160045260246000fd5b60005b83811015612640578181015183820152602001612628565b50506000910152565b6000825161265b818460208701612625565b9190910192915050565b6020815260008251806020840152612684816040850160208701612625565b601f017fffffffffffffffffffffffffffffffffffffffffffffffffffffffffffffffe016919091016040019291505056fea164736f6c6343000816000a",
  "linkReferences": {},
  "deployedLinkReferences": {}
}