{
  "_format": "hh-sol-artifact-1",
  "contractName": "ChessFishTournament",
  "sourceName": "contracts/Tournament.sol",
  "abi": [
    {
      "inputs": [
        {
          "internalType": "address",
          "name": "_chessWager",
          "type": "address"
        },
        {
          "internalType": "address",
          "name": "_paymentSplitter",
          "type": "address"
        }
      ],
      "stateMutability": "nonpayable",
      "type": "constructor"
    },
    {
      "inputs": [],
      "name": "ChessWagerAddress",
      "outputs": [
        {
          "internalType": "address",
          "name": "",
          "type": "address"
        }
      ],
      "stateMutability": "view",
      "type": "function"
    },
    {
      "inputs": [],
      "name": "PaymentSplitter",
      "outputs": [
        {
          "internalType": "address",
          "name": "",
          "type": "address"
        }
      ],
      "stateMutability": "view",
      "type": "function"
    },
    {
      "inputs": [
        {
          "internalType": "uint256",
          "name": "numberOfPlayers",
          "type": "uint256"
        },
        {
          "internalType": "uint256",
          "name": "numberOfGames",
          "type": "uint256"
        },
        {
          "internalType": "address",
          "name": "token",
          "type": "address"
        },
        {
          "internalType": "uint256",
          "name": "tokenAmount",
          "type": "uint256"
        },
        {
          "internalType": "uint256",
          "name": "timeLimit",
          "type": "uint256"
        }
      ],
      "name": "createTournament",
      "outputs": [],
      "stateMutability": "nonpayable",
      "type": "function"
    },
    {
      "inputs": [],
      "name": "deployer",
      "outputs": [
        {
          "internalType": "address",
          "name": "",
          "type": "address"
        }
      ],
      "stateMutability": "view",
      "type": "function"
    },
    {
      "inputs": [
        {
          "internalType": "uint256",
          "name": "tournamentID",
          "type": "uint256"
        }
      ],
      "name": "exitTournament",
      "outputs": [],
      "stateMutability": "nonpayable",
      "type": "function"
    },
    {
      "inputs": [
        {
          "internalType": "uint256",
          "name": "tournamentID",
          "type": "uint256"
        }
      ],
      "name": "getPlayersSortedByWins",
      "outputs": [
        {
          "internalType": "address[]",
          "name": "",
          "type": "address[]"
        }
      ],
      "stateMutability": "view",
      "type": "function"
    },
    {
      "inputs": [
        {
          "internalType": "uint256",
          "name": "tournamentID",
          "type": "uint256"
        }
      ],
      "name": "getTournamentPlayers",
      "outputs": [
        {
          "internalType": "address[]",
          "name": "",
          "type": "address[]"
        }
      ],
      "stateMutability": "view",
      "type": "function"
    },
    {
      "inputs": [
        {
          "internalType": "uint256",
          "name": "tournamentID",
          "type": "uint256"
        }
      ],
      "name": "getTournamentWagerAddresses",
      "outputs": [
        {
          "internalType": "address[]",
          "name": "",
          "type": "address[]"
        }
      ],
      "stateMutability": "view",
      "type": "function"
    },
    {
      "inputs": [
        {
          "internalType": "uint256",
          "name": "tournamentID",
          "type": "uint256"
        }
      ],
      "name": "joinTournament",
      "outputs": [],
      "stateMutability": "nonpayable",
      "type": "function"
    },
    {
      "inputs": [
        {
          "internalType": "uint256",
          "name": "",
          "type": "uint256"
        }
      ],
      "name": "payoutProfile10_25",
      "outputs": [
        {
          "internalType": "uint256",
          "name": "",
          "type": "uint256"
        }
      ],
      "stateMutability": "view",
      "type": "function"
    },
    {
      "inputs": [
        {
          "internalType": "uint256",
          "name": "",
          "type": "uint256"
        }
      ],
      "name": "payoutProfile3",
      "outputs": [
        {
          "internalType": "uint256",
          "name": "",
          "type": "uint256"
        }
      ],
      "stateMutability": "view",
      "type": "function"
    },
    {
      "inputs": [
        {
          "internalType": "uint256",
          "name": "",
          "type": "uint256"
        }
      ],
      "name": "payoutProfile4_9",
      "outputs": [
        {
          "internalType": "uint256",
          "name": "",
          "type": "uint256"
        }
      ],
      "stateMutability": "view",
      "type": "function"
    },
    {
      "inputs": [
        {
          "internalType": "uint256",
          "name": "tournamentID",
          "type": "uint256"
        }
      ],
      "name": "payoutTournament",
      "outputs": [],
      "stateMutability": "nonpayable",
      "type": "function"
    },
    {
      "inputs": [
        {
          "internalType": "uint256",
          "name": "tournamentID",
          "type": "uint256"
        }
      ],
      "name": "startTournament",
      "outputs": [],
      "stateMutability": "nonpayable",
      "type": "function"
    },
    {
      "inputs": [],
      "name": "tournamentNonce",
      "outputs": [
        {
          "internalType": "uint256",
          "name": "",
          "type": "uint256"
        }
      ],
      "stateMutability": "view",
      "type": "function"
    },
    {
      "inputs": [
        {
          "internalType": "uint256",
          "name": "",
          "type": "uint256"
        },
        {
          "internalType": "address",
          "name": "",
          "type": "address"
        }
      ],
      "name": "tournamentWins",
      "outputs": [
        {
          "internalType": "uint256",
          "name": "",
          "type": "uint256"
        }
      ],
      "stateMutability": "view",
      "type": "function"
    },
    {
      "inputs": [
        {
          "internalType": "uint256",
          "name": "",
          "type": "uint256"
        }
      ],
      "name": "tournaments",
      "outputs": [
        {
          "internalType": "uint256",
          "name": "numberOfPlayers",
          "type": "uint256"
        },
        {
          "internalType": "uint256",
          "name": "numberOfGames",
          "type": "uint256"
        },
        {
          "internalType": "address",
          "name": "token",
          "type": "address"
        },
        {
          "internalType": "uint256",
          "name": "tokenAmount",
          "type": "uint256"
        },
        {
          "internalType": "bool",
          "name": "isInProgress",
          "type": "bool"
        },
        {
          "internalType": "uint256",
          "name": "startTime",
          "type": "uint256"
        },
        {
          "internalType": "uint256",
          "name": "timeLimit",
          "type": "uint256"
        },
        {
          "internalType": "bool",
          "name": "isComplete",
          "type": "bool"
        }
      ],
      "stateMutability": "view",
      "type": "function"
    },
    {
      "inputs": [
        {
          "internalType": "uint256",
          "name": "tournamentID",
          "type": "uint256"
        }
      ],
      "name": "viewTournamentScore",
      "outputs": [
        {
          "internalType": "address[]",
          "name": "",
          "type": "address[]"
        },
        {
          "internalType": "uint256[]",
          "name": "",
          "type": "uint256[]"
        }
      ],
      "stateMutability": "view",
      "type": "function"
    }
  ],
  "bytecode": "0x6102bc60045560c0604052610230608090815261017260a052620000289060059060026200011f565b506040805160808101825261014a8152610122602082015260b491810191909152608260608201526200006090600890600462000168565b506040805160e08101825261016d815260e660208201526087918101919091526064606082015260326080820152601960a0820181905260c0820152620000ac90600c9060076200019e565b50348015620000ba57600080fd5b506040516200294738038062002947833981016040819052620000dd9162000208565b601380546001600160a01b039384166001600160a01b031991821617909155601480549290931691811691909117909155601580549091163317905562000240565b826003810192821562000156579160200282015b8281111562000156578251829061ffff1690559160200191906001019062000133565b5062000164929150620001d4565b5090565b826004810192821562000156579160200282018281111562000156578251829061ffff1690559160200191906001019062000133565b826007810192821562000156579160200282018281111562000156578251829061ffff1690559160200191906001019062000133565b5b80821115620001645760008155600101620001d5565b80516001600160a01b03811681146200020357600080fd5b919050565b600080604083850312156200021c57600080fd5b6200022783620001eb565b91506200023760208401620001eb565b90509250929050565b6126f780620002506000396000f3fe608060405234801561001057600080fd5b50600436106101365760003560e01c80637cddfa81116100b2578063b8a8de4811610081578063d115cac611610066578063d115cac614610348578063d5f394881461035b578063f5ed83de1461036e57600080fd5b8063b8a8de4814610322578063c0dcf3301461033557600080fd5b80637cddfa81146102d2578063945aff34146102e55780639f829fdd146102ee578063b849ffc31461030157600080fd5b80633dea815e11610109578063651ea943116100ee578063651ea943146101ff5780637503e1b7146102125780637509a43c146102bf57600080fd5b80633dea815e146101d75780634d7ae7a8146101ec57600080fd5b80631f22d9c01461013b57806326f7519a146101615780632d822f7a146101815780633b8e67d8146101ac575b600080fd5b61014e6101493660046122bf565b610381565b6040519081526020015b60405180910390f35b61017461016f3660046122bf565b610398565b604051610158919061231c565b61014e61018f36600461234e565b600360209081526000928352604080842090915290825290205481565b6013546101bf906001600160a01b031681565b6040516001600160a01b039091168152602001610158565b6101ea6101e53660046122bf565b610407565b005b6014546101bf906001600160a01b031681565b6101ea61020d3660046122bf565b610902565b6102726102203660046122bf565b60016020526000908152604090208054600282015460038301546004840154600585015460068601546007870154600890970154959694956001600160a01b0390941694929360ff9283169391921688565b6040805198895260208901979097526001600160a01b039095169587019590955260608601929092521515608085015260a084015260c0830191909152151560e082015261010001610158565b6101746102cd3660046122bf565b610b04565b6101ea6102e03660046122bf565b610ee0565b61014e60005481565b6101746102fc3660046122bf565b610fe0565b61031461030f3660046122bf565b61104a565b60405161015892919061237e565b61014e6103303660046122bf565b6112e1565b6101ea6103433660046123d5565b6112f1565b6101ea6103563660046122bf565b611539565b6015546101bf906001600160a01b031681565b61014e61037c3660046122bf565b611841565b6008816004811061039157600080fd5b0154905081565b6000818152600160208181526040928390209091018054835181840281018401909452808452606093928301828280156103fb57602002820191906000526020600020905b81546001600160a01b031681526001909101906020018083116103dd575b50505050509050919050565b600081815260016020526040902060060154610423904261244d565b600082815260016020526040902060070154106104875760405162461bcd60e51b815260206004820152601b60248201527f546f75726e616d656e74206e6f742066696e697368656420796574000000000060448201526064015b60405180910390fd5b60008181526001602052604090206008015460ff16156104e95760405162461bcd60e51b815260206004820152601460248201527f546f75726e616d656e7420636f6d706c65746564000000000000000000000000604482015260640161047e565b6104f281611851565b505060008181526001602081905260409091206008810180547fffffffffffffffffffffffffffffffffffffffffffffffffffffffffffffff0016831790550154606060038290036105ab5760408051600380825260808201909252906020820160608036833701905050905060005b60038110156105a5576005816003811061057e5761057e61248f565b01548282815181106105925761059261248f565b6020908102919091010152600101610562565b506106ee565b6003821180156105bc575060098211155b156106285760408051600480825260a08201909252906020820160808036833701905050905060005b60048110156105a557600881600481106106015761060161248f565b01548282815181106106155761061561248f565b60209081029190910101526001016105e5565b600982118015610639575060198211155b156106a6576040805160078082526101008201909252906020820160e08036833701905050905060005b60078110156105a557600c816007811061067f5761067f61248f565b01548282815181106106935761069361248f565b6020908102919091010152600101610663565b60405162461bcd60e51b815260206004820152601960248201527f496e76616c6964206e756d626572206f6620706c617965727300000000000000604482015260640161047e565b60006106f984610b04565b600085815260016020819052604082206003810154600482015491909201549394506001600160a01b039091169261073191906124be565b6040517f70a0823100000000000000000000000000000000000000000000000000000000815230600482015290915081906001600160a01b038416906370a0823190602401602060405180830381865afa158015610793573d6000803e3d6000fd5b505050506040513d601f19601f820116820180604052508101906107b791906124d5565b8210156107c6576107c66124ee565b60005b85518161ffff1610156108675760006103e8878361ffff16815181106107f1576107f161248f565b60200260200101518561080491906124be565b61080e919061251d565b9050801561085e57610851868361ffff168151811061082f5761082f61248f565b602002602001015182876001600160a01b0316611b6c9092919063ffffffff16565b61085b818461244d565b92505b506001016107c9565b506014546040517fa9059cbb0000000000000000000000000000000000000000000000000000000081526001600160a01b039182166004820152602481018390529084169063a9059cbb906044016020604051808303816000875af11580156108d4573d6000803e3d6000fd5b505050506040513d601f19601f820116820180604052508101906108f89190612558565b5050505050505050565b60008181526001602081905260409091200154600311156109655760405162461bcd60e51b815260206004820152601260248201527f6e6f7420656e6f75676820706c61796572730000000000000000000000000000604482015260640161047e565b60008181526001602081905260409091208054910154146109ee5760008181526001602052604090206006015462015180906109a1904261244d565b116109ee5760405162461bcd60e51b815260206004820152601e60248201527f6d75737420776169742031646179206265666f7265207374617274696e670000604482015260640161047e565b6000818152600160208190526040822060050180547fffffffffffffffffffffffffffffffffffffffffffffffffffffffffffffff001690911790555b600082815260026020526040902054811015610b0057601354600083815260026020526040902080546001600160a01b0390921691633857eb37919084908110610a7757610a7761248f565b60009182526020909120015460405160e083901b7fffffffff000000000000000000000000000000000000000000000000000000001681526001600160a01b039091166004820152602401600060405180830381600087803b158015610adc57600080fd5b505af1158015610af0573d6000803e3d6000fd5b505060019092019150610a2b9050565b5050565b600081815260016020526040902060060154606090610b23904261244d565b60008381526001602052604090206007015410610b825760405162461bcd60e51b815260206004820152601b60248201527f546f75726e616d656e74206e6f742066696e6973686564207965740000000000604482015260640161047e565b600082815260016020818152604080842090920180548351818402810184019094528084529091830182828015610be257602002820191906000526020600020905b81546001600160a01b03168152600190910190602001808311610bc4575b505050505090506000815167ffffffffffffffff811115610c0557610c05612460565b604051908082528060200260200182016040528015610c4a57816020015b6040805180820190915260008082526020820152815260200190600190039081610c235790505b50905060005b8251811015610d04576040518060400160405280848381518110610c7657610c7661248f565b60200260200101516001600160a01b03168152602001600360008881526020019081526020016000206000868581518110610cb357610cb361248f565b60200260200101516001600160a01b03166001600160a01b0316815260200190815260200160002054815250828281518110610cf157610cf161248f565b6020908102919091010152600101610c50565b506000805b60018351610d17919061244d565b811015610e31576000915060005b6001828551610d34919061244d565b610d3e919061244d565b811015610e225783610d5182600161257a565b81518110610d6157610d6161248f565b602002602001015160200151848281518110610d7f57610d7f61248f565b6020026020010151602001511015610e1a5783610d9d82600161257a565b81518110610dad57610dad61248f565b6020026020010151848281518110610dc757610dc761248f565b6020026020010151858381518110610de157610de161248f565b6020026020010186846001610df6919061257a565b81518110610e0657610e0661248f565b602002602001018290528290525050600192505b600101610d25565b508115610e3157600101610d09565b506000835167ffffffffffffffff811115610e4e57610e4e612460565b604051908082528060200260200182016040528015610e77578160200160208202803683370190505b50905060005b8351811015610ed657838181518110610e9857610e9861248f565b602002602001015160000151828281518110610eb657610eb661248f565b6001600160a01b0390921660209283029190910190910152600101610e7d565b5095945050505050565b60008181526001602052604090206005015460ff1615610f425760405162461bcd60e51b815260206004820152601660248201527f546f75726e616d656e7420696e2070726f677265737300000000000000000000604482015260640161047e565b610f4c8133611c33565b610f985760405162461bcd60e51b815260206004820152601c60248201527f6d73672e73656e646572206e6f7420696e20746f75726e616d656e7400000000604482015260640161047e565b600081815260016020526040902060038101546004909101546001600160a01b0390911690610fc78333611cba565b610fdb6001600160a01b0383163383611b6c565b505050565b6000818152600260209081526040918290208054835181840281018401909452808452606093928301828280156103fb576020028201919060005260206000209081546001600160a01b031681526001909101906020018083116103dd5750505050509050919050565b6060806000600160008581526020019081526020016000206001018054806020026020016040519081016040528092919081815260200182805480156110b957602002820191906000526020600020905b81546001600160a01b0316815260019091019060200180831161109b575b505050600087815260026020526040812054845194955093909250905067ffffffffffffffff8111156110ee576110ee612460565b604051908082528060200260200182016040528015611117578160200160208202803683370190505b50905060005b828110156112d4576013546000888152600260205260408120805491928392839283926001600160a01b03169163e9f0dac79190889081106111615761116161248f565b60009182526020909120015460405160e083901b7fffffffff000000000000000000000000000000000000000000000000000000001681526001600160a01b039091166004820152602401608060405180830381865afa1580156111c9573d6000803e3d6000fd5b505050506040513d601f19601f820116820180604052508101906111ed919061258d565b935093509350935060005b88518110156112c357846001600160a01b031689828151811061121d5761121d61248f565b60200260200101516001600160a01b03160361125e57828782815181106112465761124661248f565b6020026020010181815161125a919061257a565b9052505b836001600160a01b031689828151811061127a5761127a61248f565b60200260200101516001600160a01b0316036112bb57818782815181106112a3576112a361248f565b602002602001018181516112b7919061257a565b9052505b6001016111f8565b50506001909301925061111d915050565b5091959194509092505050565b600c816007811061039157600080fd5b60198511156113425760405162461bcd60e51b815260206004820152601060248201527f546f6f206d616e7920706c617965727300000000000000000000000000000000604482015260640161047e565b6113576001600160a01b038416333085611e8b565b6113b360405180610120016040528060008152602001606081526020016000815260200160006001600160a01b031681526020016000815260200160001515815260200160008152602001600081526020016000151581525090565b6040805160018082528183019092526000916020808301908036833701905050905033816000815181106113e9576113e961248f565b6001600160a01b039283166020918202929092018101919091528884528381018381529187166060850152608084018690526040808501899052600060a086018190524260c087015260e086018790526101008601819052805481526001808452919020855181559251805186949361146693850192019061222d565b506040820151600282015560608201516003820180546001600160a01b039092167fffffffffffffffffffffffff00000000000000000000000000000000000000009092169190911790556080820151600482015560a08201516005820180549115157fffffffffffffffffffffffffffffffffffffffffffffffffffffffffffffff0092831617905560c0830151600683015560e0830151600783015561010090920151600890910180549115159190921617905560008054908061152b836125d5565b919050555050505050505050565b6000818152600160208190526040909120908101549054101561159e5760405162461bcd60e51b815260206004820152601d60248201527f6d6178206e756d626572206f6620706c61796572732072656163686564000000604482015260640161047e565b60008181526001602052604090206005015460ff16156116005760405162461bcd60e51b815260206004820152601660248201527f746f75726e616d656e7420696e2070726f677265737300000000000000000000604482015260640161047e565b61160a8133611edc565b156116575760405162461bcd60e51b815260206004820152600e60248201527f616c7265616479204a6f696e6564000000000000000000000000000000000000604482015260640161047e565b60008181526001602052604090206003810154600482015460028301546007909301546001600160a01b0390921692909161169484333086611e8b565b60005b600086815260016020819052604090912001548110156117f35760008681526001602081905260408220018054839081106116d4576116d461248f565b60009182526020822001546013546040517fe3e9956c0000000000000000000000000000000000000000000000000000000081526001600160a01b03928316600482018190523360248301528a84166044830152606482018a90526084820189905260a48201889052945091169063e3e9956c9060c4016020604051808303816000875af115801561176a573d6000803e3d6000fd5b505050506040513d601f19601f8201168201806040525081019061178e919061260d565b60008981526002602090815260408220805460018082018355918452919092200180547fffffffffffffffffffffffff0000000000000000000000000000000000000000166001600160a01b0393909316929092179091559290920191506116979050565b50505060009283525050600160208181526040832082018054928301815583529091200180547fffffffffffffffffffffffff00000000000000000000000000000000000000001633179055565b6005816003811061039157600080fd5b6000818152600160205260409020600601546060908190611872904261244d565b600084815260016020526040902060070154106118d15760405162461bcd60e51b815260206004820152601b60248201527f546f75726e616d656e74206e6f742066696e6973686564207965740000000000604482015260640161047e565b60008381526001602081815260408084209092018054835181840281018401909452808452909183018282801561193157602002820191906000526020600020905b81546001600160a01b03168152600190910190602001808311611913575b5050506000878152600260205260408120549394509150505b81811015611aa2576013546000878152600260205260408120805491928392839283926001600160a01b03169163e9f0dac791908890811061198e5761198e61248f565b60009182526020909120015460405160e083901b7fffffffff000000000000000000000000000000000000000000000000000000001681526001600160a01b039091166004820152602401608060405180830381865afa1580156119f6573d6000803e3d6000fd5b505050506040513d601f19601f82011682018060405250810190611a1a919061258d565b60008e81526003602090815260408083206001600160a01b03881684529091528120805495995093975091955093508492611a5690849061257a565b909155505060008a81526003602090815260408083206001600160a01b038716845290915281208054839290611a8d90849061257a565b90915550506001909401935061194a92505050565b506000825167ffffffffffffffff811115611abf57611abf612460565b604051908082528060200260200182016040528015611ae8578160200160208202803683370190505b50905060005b83518110156112d457600360008881526020019081526020016000206000858381518110611b1e57611b1e61248f565b60200260200101516001600160a01b03166001600160a01b0316815260200190815260200160002054828281518110611b5957611b5961248f565b6020908102919091010152600101611aee565b6040516001600160a01b038316602482015260448101829052610fdb9084907fa9059cbb00000000000000000000000000000000000000000000000000000000906064015b604080517fffffffffffffffffffffffffffffffffffffffffffffffffffffffffffffffe08184030181529190526020810180517bffffffffffffffffffffffffffffffffffffffffffffffffffffffff167fffffffff0000000000000000000000000000000000000000000000000000000090931692909217909152611f9e565b6000805b60008481526001602081905260409091200154811015611cae57826001600160a01b0316600160008681526020019081526020016000206001018281548110611c8257611c8261248f565b6000918252602090912001546001600160a01b031603611ca6576001915050611cb4565b600101611c37565b50600090505b92915050565b6000805b60008481526001602081905260409091200154811015611d3457826001600160a01b0316600160008681526020019081526020016000206001018281548110611d0957611d0961248f565b6000918252602090912001546001600160a01b031603611d2c5760019150611d34565b600101611cbe565b811515600103611e8557600084815260016020819052604090912001548110611d5f57611d5f6124ee565b6000848152600160208190526040909120810180549091611d7f9161244d565b81548110611d8f57611d8f61248f565b600091825260208083209091015486835260019182905260409092200180546001600160a01b039092169183908110611dca57611dca61248f565b600091825260208083209190910180547fffffffffffffffffffffffff0000000000000000000000000000000000000000166001600160a01b0394909416939093179092558581526001918290526040902001805480611e2c57611e2c61262a565b60008281526020902081017fffffffffffffffffffffffffffffffffffffffffffffffffffffffffffffffff90810180547fffffffffffffffffffffffff00000000000000000000000000000000000000001690550190555b50505050565b6040516001600160a01b0380851660248301528316604482015260648101829052611e859085907f23b872dd0000000000000000000000000000000000000000000000000000000090608401611bb1565b600082815260016020818152604080842090920180548351818402810184019094528084528493849390929190830182828015611f4257602002820191906000526020600020905b81546001600160a01b03168152600190910190602001808311611f24575b5050505050905060005b8151811015611f9457846001600160a01b0316828281518110611f7157611f7161248f565b60200260200101516001600160a01b031603611f8c57600192505b600101611f4c565b5090949350505050565b6000611ff3826040518060400160405280602081526020017f5361666545524332303a206c6f772d6c6576656c2063616c6c206661696c6564815250856001600160a01b03166120869092919063ffffffff16565b90508051600014806120145750808060200190518101906120149190612558565b610fdb5760405162461bcd60e51b815260206004820152602a60248201527f5361666545524332303a204552433230206f7065726174696f6e20646964206e60448201527f6f74207375636365656400000000000000000000000000000000000000000000606482015260840161047e565b6060612095848460008561209d565b949350505050565b6060824710156121155760405162461bcd60e51b815260206004820152602660248201527f416464726573733a20696e73756666696369656e742062616c616e636520666f60448201527f722063616c6c0000000000000000000000000000000000000000000000000000606482015260840161047e565b600080866001600160a01b03168587604051612131919061267d565b60006040518083038185875af1925050503d806000811461216e576040519150601f19603f3d011682016040523d82523d6000602084013e612173565b606091505b50915091506121848783838761218f565b979650505050505050565b606083156121fe5782516000036121f7576001600160a01b0385163b6121f75760405162461bcd60e51b815260206004820152601d60248201527f416464726573733a2063616c6c20746f206e6f6e2d636f6e7472616374000000604482015260640161047e565b5081612095565b61209583838151156122135781518083602001fd5b8060405162461bcd60e51b815260040161047e9190612699565b82805482825590600052602060002090810192821561229a579160200282015b8281111561229a57825182547fffffffffffffffffffffffff0000000000000000000000000000000000000000166001600160a01b0390911617825560209092019160019091019061224d565b506122a69291506122aa565b5090565b5b808211156122a657600081556001016122ab565b6000602082840312156122d157600080fd5b5035919050565b600081518084526020808501945080840160005b838110156123115781516001600160a01b0316875295820195908201906001016122ec565b509495945050505050565b60208152600061232f60208301846122d8565b9392505050565b6001600160a01b038116811461234b57600080fd5b50565b6000806040838503121561236157600080fd5b82359150602083013561237381612336565b809150509250929050565b60408152600061239160408301856122d8565b82810360208481019190915284518083528582019282019060005b818110156123c8578451835293830193918301916001016123ac565b5090979650505050505050565b600080600080600060a086880312156123ed57600080fd5b8535945060208601359350604086013561240681612336565b94979396509394606081013594506080013592915050565b7f4e487b7100000000000000000000000000000000000000000000000000000000600052601160045260246000fd5b81810381811115611cb457611cb461241e565b7f4e487b7100000000000000000000000000000000000000000000000000000000600052604160045260246000fd5b7f4e487b7100000000000000000000000000000000000000000000000000000000600052603260045260246000fd5b8082028115828204841417611cb457611cb461241e565b6000602082840312156124e757600080fd5b5051919050565b7f4e487b7100000000000000000000000000000000000000000000000000000000600052600160045260246000fd5b600082612553577f4e487b7100000000000000000000000000000000000000000000000000000000600052601260045260246000fd5b500490565b60006020828403121561256a57600080fd5b8151801515811461232f57600080fd5b80820180821115611cb457611cb461241e565b600080600080608085870312156125a357600080fd5b84516125ae81612336565b60208601519094506125bf81612336565b6040860151606090960151949790965092505050565b60007fffffffffffffffffffffffffffffffffffffffffffffffffffffffffffffffff82036126065761260661241e565b5060010190565b60006020828403121561261f57600080fd5b815161232f81612336565b7f4e487b7100000000000000000000000000000000000000000000000000000000600052603160045260246000fd5b60005b8381101561267457818101518382015260200161265c565b50506000910152565b6000825161268f818460208701612659565b9190910192915050565b60208152600082518060208401526126b8816040850160208701612659565b601f017fffffffffffffffffffffffffffffffffffffffffffffffffffffffffffffffe016919091016040019291505056fea164736f6c6343000813000a",
  "linkReferences": {},
  "deployedLinkReferences": {}
}