{
  "_format": "hh-sol-artifact-1",
  "contractName": "ChessWager",
  "sourceName": "contracts/ChessWager.sol",
  "abi": [
    {
      "inputs": [
        {
          "internalType": "address",
          "name": "moveVerificationAddress",
          "type": "address"
        },
        {
          "internalType": "address",
          "name": "_ChessFishToken",
          "type": "address"
        },
        {
          "internalType": "address",
          "name": "_DividendSplitter",
          "type": "address"
        },
        {
          "internalType": "address",
          "name": "_ChessFishNFT",
          "type": "address"
        }
      ],
      "stateMutability": "nonpayable",
      "type": "constructor"
    },
    {
      "anonymous": false,
      "inputs": [
        {
          "indexed": false,
          "internalType": "address",
          "name": "wagerAddress",
          "type": "address"
        },
        {
          "indexed": false,
          "internalType": "address",
          "name": "userAddress",
          "type": "address"
        }
      ],
      "name": "acceptWagerEvent",
      "type": "event"
    },
    {
      "anonymous": false,
      "inputs": [
        {
          "indexed": false,
          "internalType": "address",
          "name": "wagerAddress",
          "type": "address"
        },
        {
          "indexed": false,
          "internalType": "address",
          "name": "userAddress",
          "type": "address"
        }
      ],
      "name": "cancelWagerEvent",
      "type": "event"
    },
    {
      "anonymous": false,
      "inputs": [
        {
          "indexed": false,
          "internalType": "address",
          "name": "wager",
          "type": "address"
        },
        {
          "indexed": false,
          "internalType": "address",
          "name": "wagerToken",
          "type": "address"
        },
        {
          "indexed": false,
          "internalType": "uint256",
          "name": "wagerAmount",
          "type": "uint256"
        },
        {
          "indexed": false,
          "internalType": "uint256",
          "name": "timeLimit",
          "type": "uint256"
        },
        {
          "indexed": false,
          "internalType": "uint256",
          "name": "numberOfGames",
          "type": "uint256"
        }
      ],
      "name": "createGameWagerEvent",
      "type": "event"
    },
    {
      "anonymous": false,
      "inputs": [
        {
          "indexed": false,
          "internalType": "address",
          "name": "wagerAddress",
          "type": "address"
        },
        {
          "indexed": false,
          "internalType": "address",
          "name": "winner",
          "type": "address"
        },
        {
          "indexed": false,
          "internalType": "address",
          "name": "wagerToken",
          "type": "address"
        },
        {
          "indexed": false,
          "internalType": "uint256",
          "name": "wagerAmount",
          "type": "uint256"
        },
        {
          "indexed": false,
          "internalType": "uint256",
          "name": "protocolFee",
          "type": "uint256"
        }
      ],
      "name": "payoutWagerEvent",
      "type": "event"
    },
    {
      "anonymous": false,
      "inputs": [
        {
          "indexed": false,
          "internalType": "address",
          "name": "wagerAddress",
          "type": "address"
        },
        {
          "indexed": false,
          "internalType": "uint16",
          "name": "move",
          "type": "uint16"
        }
      ],
      "name": "playMoveEvent",
      "type": "event"
    },
    {
      "inputs": [],
      "name": "ChessFishNFT",
      "outputs": [
        {
          "internalType": "address",
          "name": "",
          "type": "address"
        }
      ],
      "stateMutability": "view",
      "type": "function"
    },
    {
      "inputs": [],
      "name": "ChessFishToken",
      "outputs": [
        {
          "internalType": "address",
          "name": "",
          "type": "address"
        }
      ],
      "stateMutability": "view",
      "type": "function"
    },
    {
      "inputs": [],
      "name": "DividendSplitter",
      "outputs": [
        {
          "internalType": "address",
          "name": "",
          "type": "address"
        }
      ],
      "stateMutability": "view",
      "type": "function"
    },
    {
      "inputs": [],
      "name": "TournamentHandler",
      "outputs": [
        {
          "internalType": "address",
          "name": "",
          "type": "address"
        }
      ],
      "stateMutability": "view",
      "type": "function"
    },
    {
      "inputs": [
        {
          "internalType": "address",
          "name": "wagerAddress",
          "type": "address"
        }
      ],
      "name": "acceptWager",
      "outputs": [],
      "stateMutability": "nonpayable",
      "type": "function"
    },
    {
      "inputs": [
        {
          "internalType": "address",
          "name": "_tournamentHandler",
          "type": "address"
        }
      ],
      "name": "addTournamentHandler",
      "outputs": [],
      "stateMutability": "nonpayable",
      "type": "function"
    },
    {
      "inputs": [
        {
          "internalType": "uint256",
          "name": "",
          "type": "uint256"
        }
      ],
      "name": "allWagers",
      "outputs": [
        {
          "internalType": "address",
          "name": "",
          "type": "address"
        }
      ],
      "stateMutability": "view",
      "type": "function"
    },
    {
      "inputs": [
        {
          "internalType": "address",
          "name": "wagerAddress",
          "type": "address"
        }
      ],
      "name": "cancelWager",
      "outputs": [
        {
          "internalType": "bool",
          "name": "",
          "type": "bool"
        }
      ],
      "stateMutability": "nonpayable",
      "type": "function"
    },
    {
      "inputs": [
        {
          "internalType": "address",
          "name": "wagerAddress",
          "type": "address"
        }
      ],
      "name": "checkTimeRemaining",
      "outputs": [
        {
          "internalType": "int256",
          "name": "",
          "type": "int256"
        },
        {
          "internalType": "int256",
          "name": "",
          "type": "int256"
        }
      ],
      "stateMutability": "view",
      "type": "function"
    },
    {
      "inputs": [
        {
          "internalType": "uint16",
          "name": "move",
          "type": "uint16"
        }
      ],
      "name": "convertFromMove",
      "outputs": [
        {
          "internalType": "uint8",
          "name": "",
          "type": "uint8"
        },
        {
          "internalType": "uint8",
          "name": "",
          "type": "uint8"
        }
      ],
      "stateMutability": "pure",
      "type": "function"
    },
    {
      "inputs": [
        {
          "internalType": "uint8",
          "name": "fromPos",
          "type": "uint8"
        },
        {
          "internalType": "uint8",
          "name": "toPos",
          "type": "uint8"
        }
      ],
      "name": "convertToMove",
      "outputs": [
        {
          "internalType": "uint16",
          "name": "",
          "type": "uint16"
        }
      ],
      "stateMutability": "pure",
      "type": "function"
    },
    {
      "inputs": [
        {
          "internalType": "string",
          "name": "",
          "type": "string"
        }
      ],
      "name": "coordinates",
      "outputs": [
        {
          "internalType": "uint256",
          "name": "",
          "type": "uint256"
        }
      ],
      "stateMutability": "view",
      "type": "function"
    },
    {
      "inputs": [
        {
          "internalType": "address",
          "name": "player1",
          "type": "address"
        },
        {
          "internalType": "address",
          "name": "wagerToken",
          "type": "address"
        },
        {
          "internalType": "uint256",
          "name": "wager",
          "type": "uint256"
        },
        {
          "internalType": "uint256",
          "name": "timeLimit",
          "type": "uint256"
        },
        {
          "internalType": "uint256",
          "name": "numberOfGames",
          "type": "uint256"
        }
      ],
      "name": "createGameWager",
      "outputs": [
        {
          "internalType": "address",
          "name": "wagerAddress",
          "type": "address"
        }
      ],
      "stateMutability": "payable",
      "type": "function"
    },
    {
      "inputs": [
        {
          "internalType": "address",
          "name": "player0",
          "type": "address"
        },
        {
          "internalType": "address",
          "name": "player1",
          "type": "address"
        },
        {
          "internalType": "address",
          "name": "wagerToken",
          "type": "address"
        },
        {
          "internalType": "uint256",
          "name": "wagerAmount",
          "type": "uint256"
        },
        {
          "internalType": "uint256",
          "name": "numberOfGames",
          "type": "uint256"
        },
        {
          "internalType": "uint256",
          "name": "timeLimit",
          "type": "uint256"
        }
      ],
      "name": "createGameWagerTournamentSingle",
      "outputs": [
        {
          "internalType": "address",
          "name": "wagerAddress",
          "type": "address"
        }
      ],
      "stateMutability": "nonpayable",
      "type": "function"
    },
    {
      "inputs": [],
      "name": "deployer",
      "outputs": [
        {
          "internalType": "address",
          "name": "",
          "type": "address"
        }
      ],
      "stateMutability": "view",
      "type": "function"
    },
    {
      "inputs": [
        {
          "internalType": "address",
          "name": "",
          "type": "address"
        }
      ],
      "name": "gameWagers",
      "outputs": [
        {
          "internalType": "address",
          "name": "player0",
          "type": "address"
        },
        {
          "internalType": "address",
          "name": "player1",
          "type": "address"
        },
        {
          "internalType": "address",
          "name": "wagerToken",
          "type": "address"
        },
        {
          "internalType": "uint256",
          "name": "wager",
          "type": "uint256"
        },
        {
          "internalType": "uint256",
          "name": "numberOfGames",
          "type": "uint256"
        },
        {
          "internalType": "bool",
          "name": "hasPlayerAccepted",
          "type": "bool"
        },
        {
          "internalType": "uint256",
          "name": "timeLimit",
          "type": "uint256"
        },
        {
          "internalType": "uint256",
          "name": "timeLastMove",
          "type": "uint256"
        },
        {
          "internalType": "uint256",
          "name": "timePlayer0",
          "type": "uint256"
        },
        {
          "internalType": "uint256",
          "name": "timePlayer1",
          "type": "uint256"
        },
        {
          "internalType": "bool",
          "name": "isTournament",
          "type": "bool"
        }
      ],
      "stateMutability": "view",
      "type": "function"
    },
    {
      "inputs": [
        {
          "internalType": "address",
          "name": "wager",
          "type": "address"
        },
        {
          "internalType": "uint16",
          "name": "move",
          "type": "uint16"
        },
        {
          "internalType": "uint256",
          "name": "moveNumber",
          "type": "uint256"
        },
        {
          "internalType": "uint256",
          "name": "expiration",
          "type": "uint256"
        }
      ],
      "name": "generateMoveMessage",
      "outputs": [
        {
          "internalType": "bytes",
          "name": "",
          "type": "bytes"
        }
      ],
      "stateMutability": "pure",
      "type": "function"
    },
    {
      "inputs": [
        {
          "internalType": "address",
          "name": "player",
          "type": "address"
        }
      ],
      "name": "getAllUserGames",
      "outputs": [
        {
          "internalType": "address[]",
          "name": "",
          "type": "address[]"
        }
      ],
      "stateMutability": "view",
      "type": "function"
    },
    {
      "inputs": [],
      "name": "getAllWagerAddresses",
      "outputs": [
        {
          "internalType": "address[]",
          "name": "",
          "type": "address[]"
        }
      ],
      "stateMutability": "view",
      "type": "function"
    },
    {
      "inputs": [],
      "name": "getAllWagersCount",
      "outputs": [
        {
          "internalType": "uint256",
          "name": "",
          "type": "uint256"
        }
      ],
      "stateMutability": "view",
      "type": "function"
    },
    {
      "inputs": [
        {
          "internalType": "uint256",
          "name": "gameState",
          "type": "uint256"
        }
      ],
      "name": "getBoard",
      "outputs": [
        {
          "internalType": "string[64]",
          "name": "",
          "type": "string[64]"
        }
      ],
      "stateMutability": "view",
      "type": "function"
    },
    {
      "inputs": [
        {
          "internalType": "address",
          "name": "wagerAddress",
          "type": "address"
        }
      ],
      "name": "getGameLength",
      "outputs": [
        {
          "internalType": "uint256",
          "name": "",
          "type": "uint256"
        }
      ],
      "stateMutability": "view",
      "type": "function"
    },
    {
      "inputs": [
        {
          "internalType": "address",
          "name": "wagerAddress",
          "type": "address"
        },
        {
          "internalType": "uint256",
          "name": "gameID",
          "type": "uint256"
        }
      ],
      "name": "getGameMoves",
      "outputs": [
        {
          "components": [
            {
              "internalType": "uint16[]",
              "name": "moves",
              "type": "uint16[]"
            }
          ],
          "internalType": "struct ChessWager.Game",
          "name": "",
          "type": "tuple"
        }
      ],
      "stateMutability": "view",
      "type": "function"
    },
    {
      "inputs": [
        {
          "internalType": "address",
          "name": "wagerAddress",
          "type": "address"
        }
      ],
      "name": "getGameStatus",
      "outputs": [
        {
          "internalType": "uint8",
          "name": "",
          "type": "uint8"
        },
        {
          "internalType": "uint256",
          "name": "",
          "type": "uint256"
        },
        {
          "internalType": "uint32",
          "name": "",
          "type": "uint32"
        },
        {
          "internalType": "uint32",
          "name": "",
          "type": "uint32"
        }
      ],
      "stateMutability": "view",
      "type": "function"
    },
    {
      "inputs": [
        {
          "internalType": "uint8",
          "name": "piece",
          "type": "uint8"
        }
      ],
      "name": "getLetter",
      "outputs": [
        {
          "internalType": "string",
          "name": "",
          "type": "string"
        }
      ],
      "stateMutability": "view",
      "type": "function"
    },
    {
      "inputs": [
        {
          "internalType": "address",
          "name": "wager",
          "type": "address"
        },
        {
          "internalType": "uint16",
          "name": "move",
          "type": "uint16"
        },
        {
          "internalType": "uint256",
          "name": "moveNumber",
          "type": "uint256"
        },
        {
          "internalType": "uint256",
          "name": "expiration",
          "type": "uint256"
        }
      ],
      "name": "getMessageHash",
      "outputs": [
        {
          "internalType": "bytes32",
          "name": "",
          "type": "bytes32"
        }
      ],
      "stateMutability": "pure",
      "type": "function"
    },
    {
      "inputs": [
        {
          "internalType": "address",
          "name": "wagerAddress",
          "type": "address"
        }
      ],
      "name": "getPlayerMove",
      "outputs": [
        {
          "internalType": "address",
          "name": "",
          "type": "address"
        }
      ],
      "stateMutability": "view",
      "type": "function"
    },
    {
      "inputs": [
        {
          "internalType": "address",
          "name": "wagerAddress",
          "type": "address"
        }
      ],
      "name": "getWagerStatus",
      "outputs": [
        {
          "internalType": "address",
          "name": "",
          "type": "address"
        },
        {
          "internalType": "address",
          "name": "",
          "type": "address"
        },
        {
          "internalType": "uint256",
          "name": "",
          "type": "uint256"
        },
        {
          "internalType": "uint256",
          "name": "",
          "type": "uint256"
        }
      ],
      "stateMutability": "view",
      "type": "function"
    },
    {
      "inputs": [
        {
          "internalType": "uint16",
          "name": "hexMove",
          "type": "uint16"
        }
      ],
      "name": "hexToMove",
      "outputs": [
        {
          "internalType": "string",
          "name": "move",
          "type": "string"
        }
      ],
      "stateMutability": "view",
      "type": "function"
    },
    {
      "inputs": [
        {
          "internalType": "string[64]",
          "name": "coordinate",
          "type": "string[64]"
        },
        {
          "internalType": "uint256[64]",
          "name": "value",
          "type": "uint256[64]"
        }
      ],
      "name": "initCoordinates",
      "outputs": [],
      "stateMutability": "nonpayable",
      "type": "function"
    },
    {
      "inputs": [
        {
          "internalType": "address",
          "name": "wagerAddress",
          "type": "address"
        },
        {
          "internalType": "address",
          "name": "player",
          "type": "address"
        }
      ],
      "name": "isPlayerWhite",
      "outputs": [
        {
          "internalType": "bool",
          "name": "",
          "type": "bool"
        }
      ],
      "stateMutability": "view",
      "type": "function"
    },
    {
      "inputs": [
        {
          "internalType": "string",
          "name": "move",
          "type": "string"
        }
      ],
      "name": "moveToHex",
      "outputs": [
        {
          "internalType": "uint16",
          "name": "hexMove",
          "type": "uint16"
        }
      ],
      "stateMutability": "view",
      "type": "function"
    },
    {
      "inputs": [],
      "name": "moveVerification",
      "outputs": [
        {
          "internalType": "contract MoveVerification",
          "name": "",
          "type": "address"
        }
      ],
      "stateMutability": "view",
      "type": "function"
    },
    {
      "inputs": [
        {
          "internalType": "address",
          "name": "wagerAddress",
          "type": "address"
        }
      ],
      "name": "payoutWager",
      "outputs": [
        {
          "internalType": "bool",
          "name": "",
          "type": "bool"
        }
      ],
      "stateMutability": "nonpayable",
      "type": "function"
    },
    {
      "inputs": [
        {
          "internalType": "address",
          "name": "wagerAddress",
          "type": "address"
        },
        {
          "internalType": "uint16",
          "name": "move",
          "type": "uint16"
        }
      ],
      "name": "playMove",
      "outputs": [
        {
          "internalType": "bool",
          "name": "",
          "type": "bool"
        }
      ],
      "stateMutability": "nonpayable",
      "type": "function"
    },
    {
      "inputs": [],
      "name": "protocolFee",
      "outputs": [
        {
          "internalType": "uint256",
          "name": "",
          "type": "uint256"
        }
      ],
      "stateMutability": "view",
      "type": "function"
    },
    {
      "inputs": [
        {
          "internalType": "uint256",
          "name": "",
          "type": "uint256"
        }
      ],
      "name": "squareToCoordinate",
      "outputs": [
        {
          "internalType": "string",
          "name": "",
          "type": "string"
        }
      ],
      "stateMutability": "view",
      "type": "function"
    },
    {
      "inputs": [
        {
          "internalType": "address",
          "name": "wagerAddress",
          "type": "address"
        }
      ],
      "name": "startWagersInTournament",
      "outputs": [],
      "stateMutability": "nonpayable",
      "type": "function"
    },
    {
      "inputs": [
        {
          "internalType": "uint256",
          "name": "_fee",
          "type": "uint256"
        }
      ],
      "name": "updateFee",
      "outputs": [],
      "stateMutability": "nonpayable",
      "type": "function"
    },
    {
      "inputs": [
        {
          "internalType": "address",
          "name": "wagerAddress",
          "type": "address"
        }
      ],
      "name": "updateWagerStateTime",
      "outputs": [
        {
          "internalType": "bool",
          "name": "",
          "type": "bool"
        }
      ],
      "stateMutability": "nonpayable",
      "type": "function"
    },
    {
      "inputs": [
        {
          "internalType": "address",
          "name": "",
          "type": "address"
        },
        {
          "internalType": "uint256",
          "name": "",
          "type": "uint256"
        }
      ],
      "name": "userGames",
      "outputs": [
        {
          "internalType": "address",
          "name": "",
          "type": "address"
        }
      ],
      "stateMutability": "view",
      "type": "function"
    },
    {
      "inputs": [
        {
          "internalType": "bytes[]",
          "name": "message",
          "type": "bytes[]"
        },
        {
          "internalType": "bytes[]",
          "name": "signature",
          "type": "bytes[]"
        }
      ],
      "name": "verifyGameUpdateState",
      "outputs": [
        {
          "internalType": "bool",
          "name": "",
          "type": "bool"
        }
      ],
      "stateMutability": "nonpayable",
      "type": "function"
    },
    {
      "inputs": [
        {
          "internalType": "bytes[]",
          "name": "message",
          "type": "bytes[]"
        },
        {
          "internalType": "bytes[]",
          "name": "signature",
          "type": "bytes[]"
        }
      ],
      "name": "verifyGameView",
      "outputs": [
        {
          "internalType": "address",
          "name": "wager",
          "type": "address"
        },
        {
          "internalType": "uint8",
          "name": "outcome",
          "type": "uint8"
        },
        {
          "internalType": "uint16[]",
          "name": "moves",
          "type": "uint16[]"
        }
      ],
      "stateMutability": "view",
      "type": "function"
    },
    {
      "inputs": [
        {
          "internalType": "address",
          "name": "",
          "type": "address"
        }
      ],
      "name": "wagerStatus",
      "outputs": [
        {
          "internalType": "bool",
          "name": "isPlayer0White",
          "type": "bool"
        },
        {
          "internalType": "uint256",
          "name": "winsPlayer0",
          "type": "uint256"
        },
        {
          "internalType": "uint256",
          "name": "winsPlayer1",
          "type": "uint256"
        }
      ],
      "stateMutability": "view",
      "type": "function"
    }
  ],
  "bytecode": "0x60806040526101f46005553480156200001757600080fd5b50604051620052ef380380620052ef8339810160408190526200003a916200050f565b600480546001600160a01b0319166001600160a01b0386161790556200005f620000b0565b600c80546001600160a01b039485166001600160a01b031991821617909155600d805493851693821693909317909255600e80549190931690821617909155600380549091163317905550620006dd565b6040805180820190915260018152601760f91b602080830191909152600080805290527fad3228b676f7d3cd4284a5443f17f1962b36e491b30a40b2405849e597ba5fb59062000101908262000611565b50604080518082019091526001808252600560fc1b6020808401919091526000918252527fada5013122d395ba3c54772283fb069b10426056ef8ca54750cb9bb552a59e7d9062000153908262000611565b506040805180820190915260018152602160f91b6020808301919091526002600090815290527fabbb5caa7dda850e60932de0934eb1f9d0f59695050f761dc64e443e5030a56990620001a7908262000611565b506040805180820190915260018152602760f91b6020808301919091526003600090815290527f101e368776582e57ab3d116ffe2517c0a585cd5b23174b01e275c2d8329c3d8390620001fb908262000611565b506040805180820190915260018152602960f91b6020808301919091526004600090815290527f52d75039926638d3c558b2bdefb945d5be8dae29dedd1c313212a4d472d9fde5906200024f908262000611565b506040805180820190915260018152605160f81b6020808301919091526005600090815290527f2b232c97452f0950c94e2539fdc7e69d21166113cf7a9bcb99b220a3fe5d720a90620002a3908262000611565b506040805180820190915260018152604b60f81b6020808301919091526006600090815290527f62103cf3131c85df57aad364d21cba02556d3092d6cb54c298c2e7726a7870bd90620002f7908262000611565b506040805180820190915260018152600760fc1b6020808301919091526009600090815290527f324fdf7bfe7bd2828491073f0b7868a9a19ee3eff384c2805040be3e426447f5906200034b908262000611565b506040805180820190915260018152603160f91b602080830191909152600a600090815290527f3e9abaca0aad9ede81f4474766c846d8539f70688e1c8f521bbe1597874e3dc4906200039f908262000611565b506040805180820190915260018152603760f91b602080830191909152600b600090815290527f9115655cbcdb654012cf1b2f7e5dbf11c9ef14e152a19d5f8ea75a329092d5a690620003f3908262000611565b506040805180820190915260018152603960f91b602080830191909152600c600090815290527fd0a75bf7ea87fba36ff8a17b4519c45fb727609e6c9161b106680b25b3e2705f9062000447908262000611565b506040805180820190915260018152607160f81b602080830191909152600d600090815290527f7ca5987043ac53676c6e30f77ff1a34e98a5fae86b27e5d0cf74ac1711b8a8db906200049b908262000611565b506040805180820190915260018152606b60f81b602080830191909152600e600090815290527fe9bc119772df33ac6a685b572c53e6a4988bbdde79a460a23bed029791109f3990620004ef908262000611565b50565b80516001600160a01b03811681146200050a57600080fd5b919050565b600080600080608085870312156200052657600080fd5b6200053185620004f2565b93506200054160208601620004f2565b92506200055160408601620004f2565b91506200056160608601620004f2565b905092959194509250565b634e487b7160e01b600052604160045260246000fd5b600181811c908216806200059757607f821691505b602082108103620005b857634e487b7160e01b600052602260045260246000fd5b50919050565b601f8211156200060c57600081815260208120601f850160051c81016020861015620005e75750805b601f850160051c820191505b818110156200060857828155600101620005f3565b5050505b505050565b81516001600160401b038111156200062d576200062d6200056c565b62000645816200063e845462000582565b84620005be565b602080601f8311600181146200067d5760008415620006645750858301515b600019600386901b1c1916600185901b17855562000608565b600085815260208120601f198616915b82811015620006ae578886015182559484019460019091019084016200068d565b5085821015620006cd5787850151600019600388901b60f8161c191681555b5050505050600190811b01905550565b614c0280620006ed6000396000f3fe6080604052600436106102e75760003560e01c80636f984f3d11610184578063c50cf3ba116100d6578063e3e9956c1161008a578063f63045af11610064578063f63045af146109d3578063fb7275e0146109f3578063fe2cbfa814610ae057600080fd5b8063e3e9956c1461090a578063e9f0dac71461092a578063f4b8dfbb146109b357600080fd5b8063d7fde3f0116100bb578063d7fde3f01461086a578063d8b80bef1461088a578063e113ced9146108ea57600080fd5b8063c50cf3ba1461082a578063d5f394881461084a57600080fd5b8063aab66de511610138578063bc0167cd11610112578063bc0167cd146107bd578063c0be6652146107dd578063c244c1cc146107fd57600080fd5b8063aab66de514610767578063b0e21e8a14610787578063b6c6c7621461079d57600080fd5b80639012c4a8116101695780639012c4a8146106f25780639c2cc0ca146107125780639d44548c1461074757600080fd5b80636f984f3d146106755780638e62569a1461069557600080fd5b80633857eb371161023d57806345e09e54116101f157806356e09bc1116101cb57806356e09bc1146105e45780635d408c6e146106115780636c51f0381461063157600080fd5b806345e09e54146105475780634d943c371461057457806354e4437e1461059457600080fd5b80633d1f6de5116102225780633d1f6de5146104de5780633fc9b5c7146104f15780634393f7621461051157600080fd5b80633857eb371461049e57806339b86179146104be57600080fd5b80631673b9421161029f5780631d9f45ee116102795780631d9f45ee146104495780631e0e29cd1461046957806335be391f1461048957600080fd5b80631673b942146103d457806318071ef3146104075780631a596a091461042957600080fd5b80630e8d4fa9116102d05780630e8d4fa9146103595780631300e975146103885780631608a4df146103a757600080fd5b806302d4defb146102ec57806302e3f0bf14610329575b600080fd5b3480156102f857600080fd5b50600c5461030c906001600160a01b031681565b6040516001600160a01b0390911681526020015b60405180910390f35b34801561033557600080fd5b50610349610344366004613f5a565b610b18565b6040519015158152602001610320565b34801561036557600080fd5b506103796103743660046140ea565b610f90565b6040516103209392919061418d565b34801561039457600080fd5b50600b545b604051908152602001610320565b3480156103b357600080fd5b506103c76103c2366004613f5a565b611257565b60405161032091906141c1565b3480156103e057600080fd5b506103f46103ef36600461421d565b6112cd565b60405161ffff9091168152602001610320565b34801561041357600080fd5b50610427610422366004613f5a565b6112ef565b005b34801561043557600080fd5b50600d5461030c906001600160a01b031681565b34801561045557600080fd5b5060045461030c906001600160a01b031681565b34801561047557600080fd5b50610427610484366004614268565b611383565b34801561049557600080fd5b506103c76114b4565b3480156104aa57600080fd5b506104276104b9366004613f5a565b611516565b3480156104ca57600080fd5b506103996104d93660046142c8565b611590565b61030c6104ec36600461430e565b6115fc565b3480156104fd57600080fd5b5061034961050c366004613f5a565b6118db565b34801561051d57600080fd5b5061039961052c366004613f5a565b6001600160a01b031660009081526008602052604090205490565b34801561055357600080fd5b5061056761056236600461435f565b611a3a565b60405161032091906143c8565b34801561058057600080fd5b5061034961058f3660046140ea565b611b85565b3480156105a057600080fd5b506105b46105af366004613f5a565b611c02565b6040805160ff9095168552602085019390935263ffffffff91821692840192909252166060820152608001610320565b3480156105f057600080fd5b506106046105ff36600461435f565b611d52565b6040516103209190614416565b34801561061d57600080fd5b5061034961062c366004614429565b611dec565b34801561063d57600080fd5b5061065b61064c366004614457565b603f600682901c811692911690565b6040805160ff938416815292909116602083015201610320565b34801561068157600080fd5b50610349610690366004613f5a565b611e57565b3480156106a157600080fd5b506106d56106b0366004613f5a565b60096020526000908152604090208054600182015460029092015460ff909116919083565b604080519315158452602084019290925290820152606001610320565b3480156106fe57600080fd5b5061042761070d36600461435f565b612044565b34801561071e57600080fd5b5061073261072d366004613f5a565b6120a3565b60408051928352602083019190915201610320565b34801561075357600080fd5b50610349610762366004614474565b612183565b34801561077357600080fd5b50600f5461030c906001600160a01b031681565b34801561079357600080fd5b5061039960055481565b3480156107a957600080fd5b5061030c6107b8366004613f5a565b6124a8565b3480156107c957600080fd5b5061030c6107d83660046144a2565b61259e565b3480156107e957600080fd5b506106046107f8366004614457565b6125d6565b34801561080957600080fd5b5061081d6108183660046144a2565b612757565b60405161032091906144ce565b34801561083657600080fd5b50610604610845366004614522565b61280b565b34801561085657600080fd5b5060035461030c906001600160a01b031681565b34801561087657600080fd5b50600e5461030c906001600160a01b031681565b34801561089657600080fd5b506106046108a53660046142c8565b604080516001600160a01b0395909516602086015261ffff939093168484015260608401919091526080808401919091528151808403909101815260a0909201905290565b3480156108f657600080fd5b506103f461090536600461453f565b6128b3565b34801561091657600080fd5b5061030c610925366004614588565b612ae1565b34801561093657600080fd5b50610988610945366004613f5a565b6001600160a01b03908116600090815260066020908152604080832080546001918201546009909452919093209283015460029093015490841694919093169290565b604080516001600160a01b039586168152949093166020850152918301526060820152608001610320565b3480156109bf57600080fd5b5061030c6109ce36600461435f565b612f05565b3480156109df57600080fd5b506104276109ee366004613f5a565b612f2f565b3480156109ff57600080fd5b50610a7c610a0e366004613f5a565b600660208190526000918252604090912080546001820154600283015460038401546004850154600586015496860154600787015460088801546009890154600a909901546001600160a01b039889169a9789169998909616979496939560ff94851695939492939192168b565b604080516001600160a01b039c8d1681529a8c1660208c015298909a16978901979097526060880195909552608087019390935290151560a086015260c085015260e084015261010083015261012082015290151561014082015261016001610320565b348015610aec57600080fd5b50610399610afb36600461453f565b805160208183018101805160018252928201919093012091525481565b6001600160a01b03818116600090815260066020526040812054909116331480610b5e57506001600160a01b038281166000908152600660205260409020600101541633145b610baf5760405162461bcd60e51b815260206004820152600a60248201527f6e6f74206c69737465640000000000000000000000000000000000000000000060448201526064015b60405180910390fd5b6001600160a01b03821660009081526006602090815260408083206004015460089092529091205414610c245760405162461bcd60e51b815260206004820152601660248201527f7761676572206e6f742066696e697368656420796574000000000000000000006044820152606401610ba6565b6001600160a01b038216600090815260066020526040902060030154610c8c5760405162461bcd60e51b815260206004820152601160248201527f776167657220616d6f756e7420697320300000000000000000000000000000006044820152606401610ba6565b6001600160a01b0382166000908152600660205260409020600a015460ff1615610d1e5760405162461bcd60e51b815260206004820152603460248201527f546f75726e616d656e74207061796d656e742069732068616e646c656420627960448201527f20746f75726e616d656e7420636f6e74726163740000000000000000000000006064820152608401610ba6565b6001600160a01b0382166000908152600960205260408120600281015460019091015403610d7b576001600160a01b0383166000908152600660205260408120600401805491610d6d8361461c565b909155506000949350505050565b6001600160a01b038316600090815260096020526040902060028101546001909101541115610dc557506001600160a01b0380831660009081526006602052604090205416610de5565b506001600160a01b03808316600090815260066020526040902060010154165b6001600160a01b0380841660009081526006602052604081206002808201546003909201549190931692610e199190614654565b6001600160a01b03861660009081526006602052604081206003018190556005549192509061271090610e4c9084614654565b610e56919061469a565b90506000610e6482846146ae565b600d54909150610e81906001600160a01b038681169116846130e2565b610e956001600160a01b03851686836130e2565b600e546040517f74e7c8250000000000000000000000000000000000000000000000000000000081526001600160a01b0387811660048301528981166024830152909116906374e7c825906044016020604051808303816000875af1158015610f02573d6000803e3d6000fd5b505050506040513d601f19601f82011682018060405250810190610f2691906146c1565b50600554604080516001600160a01b038a811682528881166020830152871681830152606081018490526080810192909252517f17ba55c6dfeb1e13fe6a10375284f63094ead0bb4ca2ac7864e62e18a9adc9129181900360a00190a15060019695505050505050565b60008060606000610fba86600081518110610fad57610fad6146da565b602002602001015161318b565b50505090506000610fca826124a8565b6001600160a01b03808416600090815260066020526040902080546001909101548a519394509082169291169067ffffffffffffffff81111561100f5761100f613f7e565b604051908082528060200260200182016040528015611038578160200160208202803683370190505b5094506000895167ffffffffffffffff81111561105757611057613f7e565b604051908082528060200260200182016040528015611080578160200160208202803683370190505b50905060005b8a518110156111b95760008060006110a98e8581518110610fad57610fad6146da565b935093509350506002846110bd9190614709565b6000036110cc578597506110d0565b8697505b60006110de8a858585611590565b90506110ec818f8b886131be565b84156111645782866110ff6001886146ae565b8151811061110f5761110f6146da565b6020026020010151106111645760405162461bcd60e51b815260206004820152601260248201527f696e76616c6964206d6f7665206f7264657200000000000000000000000000006044820152606401610ba6565b82868681518110611177576111776146da565b602002602001018181525050838b8681518110611196576111966146da565b61ffff909216602092830291909101909101525050600190920191506110869050565b50600480546040517fc668ddb40000000000000000000000000000000000000000000000000000000081526001600160a01b039091169163c668ddb491611202918a910161471d565b608060405180830381865afa15801561121f573d6000803e3d6000fd5b505050506040513d601f19601f820116820180604052508101906112439190614749565b509699509097505050505050509250925092565b6001600160a01b0381166000908152600a60209081526040918290208054835181840281018401909452808452606093928301828280156112c157602002820191906000526020600020905b81546001600160a01b031681526001909101906020018083116112a3575b50505050509050919050565b6000613fc0600684901b166112e560ff841682614799565b9150505b92915050565b6003546001600160a01b031633146113495760405162461bcd60e51b815260206004820152600d60248201527f4f6e6c79206465706c6f796572000000000000000000000000000000000000006044820152606401610ba6565b600f80547fffffffffffffffffffffffff0000000000000000000000000000000000000000166001600160a01b0392909216919091179055565b6003546001600160a01b031633146113dd5760405162461bcd60e51b815260206004820152600d60248201527f4f6e6c79206465706c6f796572000000000000000000000000000000000000006044820152606401610ba6565b60005b60408112156114af578181604081106113fb576113fb6146da565b60200201356001848360408110611414576114146146da565b60200281019061142491906147bb565b604051611432929190614820565b908152602001604051809103902081905550828160408110611456576114566146da565b60200281019061146691906147bb565b6002600085856040811061147c5761147c6146da565b60200201358152602001908152602001600020918261149c9291906148c9565b50806114a7816149c5565b9150506113e0565b505050565b6060600b80548060200260200160405190810160405280929190818152602001828054801561150c57602002820191906000526020600020905b81546001600160a01b031681526001909101906020018083116114ee575b5050505050905090565b600f546001600160a01b031633146115705760405162461bcd60e51b815260206004820152601760248201527f6e6f7420746f75726e616d656e7420636f6e74726163740000000000000000006044820152606401610ba6565b6001600160a01b0316600090815260066020526040902042600790910155565b604080516001600160a01b038616602082015261ffff8516818301526060810184905260808082018490528251808303909101815260a082019092526000916115db9160c0016149f6565b6040516020818303038152906040528051906020012090505b949350505050565b6040805161016081018252338082526001600160a01b03888116602084015287169282018390526000606083018190526080830185905260a0830181905260c0830186905260e083018190526101008301819052610120830181905261014083018190529261166c9130886132a3565b6060810185905261167c816132fa565b6001600160a01b0380821660009081526006602052604090205491935016156116a457600080fd5b6001600160a01b038083166000818152600660208181526040808420875181549088167fffffffffffffffffffffffff00000000000000000000000000000000000000009182161782558389015160018084018054928b1692841692909217909155838a015160028085018054928c16928516929092179091556060808c0151600386015560808c0151600486015560a08c01516005860180549115157fffffffffffffffffffffffffffffffffffffffffffffffffffffffffffffff0092831617905560c08d01519886019890985560e08c015160078601556101008c015160088601556101208c01516009808701919091556101408d0151600a9687018054911515918b16919091179055865191820187528982528188018a81528288018b81528c8c52918952878b20835181549015159b169a909a178a55518985015551979091019690965533875291845282862080548084018255908752848720018054821688179055968e168552818520805480830182559086529285209092018054871686179055600b805492830181559093527f0175b7a638427703f0dbe7bb9bbf987a2551717b34e79f33b5b1008d1fa01db901805490941690921790925590517f8b71196164839daf146c1f61cf5c3d0aa0590d17e7d96013d972d1ad72a45972906118c89085908a908a908a908a906001600160a01b03958616815293909416602084015260408301919091526060820152608081019190915260a00190565b60405180910390a1505095945050505050565b6001600160a01b03811660009081526006602052604081206007015481036119455760405162461bcd60e51b815260206004820181905260248201527f746f75726e616d656e74206d61746368206e6f742073746172746564207965746044820152606401610ba6565b600080611951846120a3565b9150915060008212156119f9576001600160a01b038416600090815260096020526040812060020180546001929061198a908490614a12565b9091555050506001600160a01b03909216600090815260096020908152604080832080547fffffffffffffffffffffffffffffffffffffffffffffffffffffffffffffff00811660ff909116151790556008825282208054600181810183559184529190922081015592915050565b6000811215611a30576001600160a01b0384166000908152600960205260408120600190810180549192909161198a908490614a12565b5060009392505050565b611a42613e5f565b611a4a613e5f565b6000805b60078111611b7c5760006001611a648382614a25565b611a6f906008614a4d565b611a799190614a99565b90506000611a88600783614a99565b90505b808212611b6757600480546040517fa4a10e0b00000000000000000000000000000000000000000000000000000000815291820189905260ff841660248301526000916001600160a01b039091169063a4a10e0b90604401602060405180830381865afa158015611b00573d6000803e3d6000fd5b505050506040513d601f19601f82011682018060405250810190611b249190614ab9565b9050611b2f8161280b565b868660408110611b4157611b416146da565b602002015284611b508161461c565b955050508180611b5f90614ad6565b925050611a8b565b50508080611b749061461c565b915050611a4e565b50909392505050565b600080600080611b958686610f90565b925060ff169250925081600014611bf6576001600160a01b03831660009081526008602090815260408083205460078352818420818552835292208351611bde92850190613e87565b50611be88461346d565b5060019450505050506112e9565b600093505050506112e9565b6001600160a01b03811660009081526008602090815260408083205460078352818420818552835281842080548351818602810186019094528084528594859485949385939192909190830182828015611ca357602002820191906000526020600020906000905b82829054906101000a900461ffff1661ffff1681526020019060020190602082600101049283019260010382029150808411611c6a5790505b5050600480546040517fc668ddb40000000000000000000000000000000000000000000000000000000081529596506000958695508594508493506001600160a01b039091169163c668ddb491611cfc9189910161471d565b608060405180830381865afa158015611d19573d6000803e3d6000fd5b505050506040513d601f19601f82011682018060405250810190611d3d9190614749565b929e919d509b50909950975050505050505050565b60026020526000908152604090208054611d6b90614830565b80601f0160208091040260200160405190810160405280929190818152602001828054611d9790614830565b8015611de45780601f10611db957610100808354040283529160200191611de4565b820191906000526020600020905b815481529060010190602001808311611dc757829003601f168201915b505050505081565b6001600160a01b038281166000908152600660205260408120549091808416911603611e3457506001600160a01b03821660009081526009602052604090205460ff166112e9565b506001600160a01b03821660009081526009602052604090205460ff16156112e9565b6001600160a01b03811660009081526006602052604081206005015460ff1615611ec35760405162461bcd60e51b815260206004820152601160248201527f776167657220696e2070726f67726573730000000000000000000000000000006044820152606401610ba6565b6001600160a01b03828116600090815260066020526040902054163314611f2c5760405162461bcd60e51b815260206004820152600a60248201527f6e6f74206c6973746564000000000000000000000000000000000000000000006044820152606401610ba6565b6001600160a01b0382166000908152600660205260409020600a015460ff161515600103611fc25760405162461bcd60e51b815260206004820152602f60248201527f63616e6e6f742063616e63656c20746f75726e616d656e74207761676572206960448201527f6e207468697320636f6e747261637400000000000000000000000000000000006064820152608401610ba6565b6001600160a01b03808316600090815260066020526040812060028101546003909101805492905590911690611ff98233836130e2565b604080516001600160a01b03861681523360208201527fd7ac1994f37f26b02459758a4564d000ddb3e6b64c724bd513845d43b2a991c1910160405180910390a15060019392505050565b6003546001600160a01b0316331461209e5760405162461bcd60e51b815260206004820152600d60248201527f4f6e6c79206465706c6f796572000000000000000000000000000000000000006044820152606401610ba6565b600555565b6001600160a01b03808216600090815260066020526040812080546008820154600983015460079093015493948594921692909184906120e390426146ae565b6001600160a01b03881660009081526006602081905260408220015491925061210b896124a8565b9050600080876001600160a01b0316836001600160a01b031603612150576121338786614a12565b61213d9085614a99565b91506121498685614a99565b9050612173565b61215a8785614a99565b91506121668686614a12565b6121709085614a99565b90505b909a909950975050505050505050565b60003361218f846124a8565b6001600160a01b0316146121e55760405162461bcd60e51b815260206004820152600d60248201527f4e6f7420796f7572207475726e000000000000000000000000000000000000006044820152606401610ba6565b6001600160a01b03831660009081526006602052604090206004015461220a8461382d565b106122575760405162461bcd60e51b815260206004820152600b60248201527f576167657220656e6465640000000000000000000000000000000000000000006044820152606401610ba6565b6001600160a01b03831660009081526006602052604081206007015490036122c15760405162461bcd60e51b815260206004820152601a60248201527f546f75726e616d656e74206e6f742073746172746564207965740000000000006044820152606401610ba6565b6122cb833361385a565b60006122d6846118db565b905080156122e85760019150506112e9565b6001600160a01b038416600090815260086020908152604080832054600783528184208185529092528220549091612321826001614a12565b67ffffffffffffffff81111561233957612339613f7e565b604051908082528060200260200182016040528015612362578160200160208202803683370190505b50905060005b828110156123f6576001600160a01b038816600090815260076020908152604080832087845290915290208054829081106123a5576123a56146da565b90600052602060002090601091828204019190066002029054906101000a900461ffff168282815181106123db576123db6146da565b61ffff90921660209283029190910190910152600101612368565b508581838151811061240a5761240a6146da565b61ffff9092166020928302919091018201526001600160a01b038816600090815260078252604080822086835283529020825161244992840190613e87565b5060006124558861346d565b604080516001600160a01b038b16815261ffff8a1660208201529192507f9fc19a6b17c82c9f9699088172073341a17ba160046632ca547fbc74ff5543fd910160405180910390a1979650505050505050565b6001600160a01b0381166000818152600860209081526040808320546007835281842081855283528184205494845260099092528220549192909160ff168015612545576124f7600283614709565b60010361252357505050506001600160a01b039081166000908152600660205260409020600101541690565b505050506001600160a01b039081166000908152600660205260409020541690565b612550600283614709565b60010361257957505050506001600160a01b039081166000908152600660205260409020541690565b505050506001600160a01b039081166000908152600660205260409020600101541690565b600a60205281600052604060002081815481106125ba57600080fd5b6000918252602090912001546001600160a01b03169150829050565b600681901c60ff8116600090815260026020526040812080546060936103ff1692603f861692909161260790614830565b80601f016020809104026020016040519081016040528092919081815260200182805461263390614830565b80156126805780601f1061265557610100808354040283529160200191612680565b820191906000526020600020905b81548152906001019060200180831161266357829003601f168201915b505050505090506000600260008460ff16815260200190815260200160002080546126aa90614830565b80601f01602080910402602001604051908101604052809291908181526020018280546126d690614830565b80156127235780601f106126f857610100808354040283529160200191612723565b820191906000526020600020905b81548152906001019060200180831161270657829003601f168201915b50505050509050818160405160200161273d929190614b2d565b604051602081830303815290604052945050505050919050565b6040805160208082018352606082526001600160a01b0385166000908152600782528381208582528252839020835181548084028201860186529281018381529394909391928492918491908401828280156127fa57602002820191906000526020600020906000905b82829054906101000a900461ffff1661ffff16815260200190600201906020826001010492830192600103820291508084116127c15790505b505050505081525050905092915050565b60ff811660009081526020819052604081208054606092919061282d90614830565b80601f016020809104026020016040519081016040528092919081815260200182805461285990614830565b80156128a65780601f1061287b576101008083540402835291602001916128a6565b820191906000526020600020905b81548152906001019060200180831161288957829003601f168201915b5093979650505050505050565b60408051808201825260028082527f30300000000000000000000000000000000000000000000000000000000000006020808401829052845180860190955291845290830152825160009284929183908590612911576129116146da565b602001015160f81c60f81b8260008151811061292f5761292f6146da565b60200101907effffffffffffffffffffffffffffffffffffffffffffffffffffffffffffff1916908160001a90535082600181518110612971576129716146da565b602001015160f81c60f81b8260018151811061298f5761298f6146da565b60200101907effffffffffffffffffffffffffffffffffffffffffffffffffffffffffffff1916908160001a905350826002815181106129d1576129d16146da565b602001015160f81c60f81b816000815181106129ef576129ef6146da565b60200101907effffffffffffffffffffffffffffffffffffffffffffffffffffffffffffff1916908160001a90535082600381518110612a3157612a316146da565b602001015160f81c60f81b81600181518110612a4f57612a4f6146da565b60200101907effffffffffffffffffffffffffffffffffffffffffffffffffffffffffffff1916908160001a90535060405182908290600090600190612a969085906149f6565b90815260200160405180910390205490506000600183604051612ab991906149f6565b9081526020016040518091039020549050612ad482826112cd565b9998505050505050505050565b600f546000906001600160a01b03163314612b3e5760405162461bcd60e51b815260206004820152601760248201527f6e6f7420746f75726e616d656e7420636f6e74726163740000000000000000006044820152606401610ba6565b6000604051806101600160405280896001600160a01b03168152602001886001600160a01b03168152602001876001600160a01b03168152602001868152602001858152602001600115158152602001848152602001600081526020016000815260200160008152602001600115158152509050612bbb816132fa565b91508060066000846001600160a01b03166001600160a01b0316815260200190815260200160002060008201518160000160006101000a8154816001600160a01b0302191690836001600160a01b0316021790555060208201518160010160006101000a8154816001600160a01b0302191690836001600160a01b0316021790555060408201518160020160006101000a8154816001600160a01b0302191690836001600160a01b03160217905550606082015181600301556080820151816004015560a08201518160050160006101000a81548160ff02191690831515021790555060c0820151816006015560e082015181600701556101008201518160080155610120820151816009015561014082015181600a0160006101000a81548160ff0219169083151502179055509050506000604051806060016040528060001515815260200160008152602001600081525090508060096000856001600160a01b03166001600160a01b0316815260200190815260200160002060008201518160000160006101000a81548160ff0219169083151502179055506020820151816001015560408201518160020155905050600a60008a6001600160a01b03166001600160a01b03168152602001908152602001600020839080600181540180825580915050600190039060005260206000200160009091909190916101000a8154816001600160a01b0302191690836001600160a01b03160217905550600a6000896001600160a01b03166001600160a01b03168152602001908152602001600020839080600181540180825580915050600190039060005260206000200160009091909190916101000a8154816001600160a01b0302191690836001600160a01b03160217905550600b839080600181540180825580915050600190039060005260206000200160009091909190916101000a8154816001600160a01b0302191690836001600160a01b031602179055507f8b71196164839daf146c1f61cf5c3d0aa0590d17e7d96013d972d1ad72a459728388888789604051612ef19594939291906001600160a01b03958616815293909416602084015260408301919091526060820152608081019190915260a00190565b60405180910390a150509695505050505050565b600b8181548110612f1557600080fd5b6000918252602090912001546001600160a01b0316905081565b6001600160a01b038082166000908152600660205260409020600101541680612fc5576001600160a01b038216600081815260066020908152604080832060019081018054337fffffffffffffffffffffffff00000000000000000000000000000000000000009182168117909255908552600a8452918420805491820181558452919092200180549091169091179055613031565b6001600160a01b038281166000908152600660205260409020600101541633146130315760405162461bcd60e51b815260206004820152601560248201527f6d73672e73656e64657220213d20706c617965723100000000000000000000006044820152606401610ba6565b6001600160a01b038083166000908152600660205260409020600281015460038201546005830180547fffffffffffffffffffffffffffffffffffffffffffffffffffffffffffffff00166001179055426007909301929092559091169061309b823330846132a3565b604080516001600160a01b03861681523360208201527fc13e0ce4ce512479ea6017f275044e0b28a96539df1d5a8ccad20c8f4ba117e9910160405180910390a150505050565b6040516001600160a01b0383166024820152604481018290526114af9084907fa9059cbb00000000000000000000000000000000000000000000000000000000906064015b60408051601f198184030181529190526020810180517bffffffffffffffffffffffffffffffffffffffffffffffffffffffff167fffffffff0000000000000000000000000000000000000000000000000000000090931692909217909152613943565b600080600080600080600080888060200190518101906131ab9190614b5c565b929c919b50995090975095505050505050565b6000613217856040517f19457468657265756d205369676e6564204d6573736167653a0a3332000000006020820152603c8101829052600090605c01604051602081830303815290604052805190602001209050919050565b9050826001600160a01b031661324682868581518110613239576132396146da565b6020026020010151613a2b565b6001600160a01b03161461329c5760405162461bcd60e51b815260206004820152600b60248201527f696e76616c6964207369670000000000000000000000000000000000000000006044820152606401610ba6565b5050505050565b6040516001600160a01b03808516602483015283166044820152606481018290526132f49085907f23b872dd0000000000000000000000000000000000000000000000000000000090608401613127565b50505050565b600081602001516001600160a01b031682600001516001600160a01b0316036133655760405162461bcd60e51b815260206004820152601960248201527f706c6179657273206d75737420626520646966666572656e74000000000000006044820152606401610ba6565b600282608001516133769190614709565b6001146133c55760405162461bcd60e51b815260206004820152601b60248201527f6e756d626572206f662067616d6573206d757374206265206f646400000000006044820152606401610ba6565b50805160208083015160408085015160608087015160c0880151608090980151845197831b7fffffffffffffffffffffffffffffffffffffffff0000000000000000000000009081168989015295831b8616603489015292821b9094166048870152605c860193909352607c850195909552609c8401949094524360bc84018190524060dc808501919091528451808503909101815260fc9093019093528151910120901c90565b6001600160a01b038116600090815260086020908152604080832054600783528184208185528352818420805483518186028101860190945280845291938593929083018282801561350657602002820191906000526020600020906000905b82829054906101000a900461ffff1661ffff16815260200190600201906020826001010492830192600103820291508084116134cd5790505b5050600480546040517fc668ddb40000000000000000000000000000000000000000000000000000000081529596506000956001600160a01b03909116945063c668ddb49350613559925086910161471d565b608060405180830381865afa158015613576573d6000803e3d6000fd5b505050506040513d601f19601f8201168201806040525081019061359a9190614749565b50505090508060ff166000036135b557506000949350505050565b8060ff1660010361368f576001600160a01b038516600090815260096020526040812060019081018054919290916135ee908490614a12565b90915550506001600160a01b038516600090815260096020526040812060020180546001929061361f908490614a12565b9091555050506001600160a01b03909316600090815260096020908152604080832080547fffffffffffffffffffffffffffffffffffffffffffffffffffffffffffffff00811660ff90911615179055600882528220805460018181018355918452919092208101559392505050565b8060ff16600203613792576001600160a01b038086166000908152600660205260409020546136c091879116611dec565b156136fe576001600160a01b038516600090815260096020526040812060019081018054919290916136f3908490614a12565b9091555061372a9050565b6001600160a01b038516600090815260096020526040812060020180546001929061361f908490614a12565b505050506001600160a01b03166000908152600960209081526040808320805460ff8116157fffffffffffffffffffffffffffffffffffffffffffffffffffffffffffffff009091161790556008825282208054600181810183559184529190922081015590565b8060ff16600303613822576001600160a01b038086166000908152600660205260409020546137c391879116611dec565b156137f4576001600160a01b03851660009081526009602052604081206002018054600192906136f3908490614a12565b6001600160a01b0385166000908152600960205260408120600190810180549192909161361f908490614a12565b506000949350505050565b6001600160a01b038116600090815260096020526040812060028101546001909101546112e99190614a12565b6001600160a01b038281166000908152600660205260408120805460079091015484841691909316149190429061389183836146ae565b905083156138ec576001600160a01b038616600090815260066020526040812060080180548392906138c4908490614a12565b90915550506001600160a01b038616600090815260066020526040902060070182905561393b565b6001600160a01b03861660009081526006602052604081206009018054839290613917908490614a12565b90915550506001600160a01b03861660009081526006602052604090206007018290555b505050505050565b6000613998826040518060400160405280602081526020017f5361666545524332303a206c6f772d6c6576656c2063616c6c206661696c6564815250856001600160a01b0316613a4f9092919063ffffffff16565b90508051600014806139b95750808060200190518101906139b99190614ba4565b6114af5760405162461bcd60e51b815260206004820152602a60248201527f5361666545524332303a204552433230206f7065726174696f6e20646964206e60448201527f6f742073756363656564000000000000000000000000000000000000000000006064820152608401610ba6565b6000806000613a3a8585613a5e565b91509150613a4781613aa3565b509392505050565b60606115f48484600085613c0b565b6000808251604103613a945760208301516040840151606085015160001a613a8887828585613cfd565b94509450505050613a9c565b506000905060025b9250929050565b6000816004811115613ab757613ab7614bc6565b03613abf5750565b6001816004811115613ad357613ad3614bc6565b03613b205760405162461bcd60e51b815260206004820152601860248201527f45434453413a20696e76616c6964207369676e617475726500000000000000006044820152606401610ba6565b6002816004811115613b3457613b34614bc6565b03613b815760405162461bcd60e51b815260206004820152601f60248201527f45434453413a20696e76616c6964207369676e6174757265206c656e677468006044820152606401610ba6565b6003816004811115613b9557613b95614bc6565b03613c085760405162461bcd60e51b815260206004820152602260248201527f45434453413a20696e76616c6964207369676e6174757265202773272076616c60448201527f75650000000000000000000000000000000000000000000000000000000000006064820152608401610ba6565b50565b606082471015613c835760405162461bcd60e51b815260206004820152602660248201527f416464726573733a20696e73756666696369656e742062616c616e636520666f60448201527f722063616c6c00000000000000000000000000000000000000000000000000006064820152608401610ba6565b600080866001600160a01b03168587604051613c9f91906149f6565b60006040518083038185875af1925050503d8060008114613cdc576040519150601f19603f3d011682016040523d82523d6000602084013e613ce1565b606091505b5091509150613cf287838387613dc1565b979650505050505050565b6000807f7fffffffffffffffffffffffffffffff5d576e7357a4501ddfe92f46681b20a0831115613d345750600090506003613db8565b6040805160008082526020820180845289905260ff881692820192909252606081018690526080810185905260019060a0016020604051602081039080840390855afa158015613d88573d6000803e3d6000fd5b5050604051601f1901519150506001600160a01b038116613db157600060019250925050613db8565b9150600090505b94509492505050565b60608315613e30578251600003613e29576001600160a01b0385163b613e295760405162461bcd60e51b815260206004820152601d60248201527f416464726573733a2063616c6c20746f206e6f6e2d636f6e74726163740000006044820152606401610ba6565b50816115f4565b6115f48383815115613e455781518083602001fd5b8060405162461bcd60e51b8152600401610ba69190614416565b6040518061080001604052806040905b6060815260200190600190039081613e6f5790505090565b82805482825590600052602060002090600f01601090048101928215613f205791602002820160005b83821115613ef057835183826101000a81548161ffff021916908361ffff1602179055509260200192600201602081600101049283019260010302613eb0565b8015613f1e5782816101000a81549061ffff0219169055600201602081600101049283019260010302613ef0565b505b50613f2c929150613f30565b5090565b5b80821115613f2c5760008155600101613f31565b6001600160a01b0381168114613c0857600080fd5b600060208284031215613f6c57600080fd5b8135613f7781613f45565b9392505050565b7f4e487b7100000000000000000000000000000000000000000000000000000000600052604160045260246000fd5b604051601f8201601f1916810167ffffffffffffffff81118282101715613fd657613fd6613f7e565b604052919050565b600067ffffffffffffffff831115613ff857613ff8613f7e565b61400b6020601f19601f86011601613fad565b905082815283838301111561401f57600080fd5b828260208301376000602084830101529392505050565b600082601f83011261404757600080fd5b8135602067ffffffffffffffff8083111561406457614064613f7e565b8260051b614073838201613fad565b938452858101830193838101908886111561408d57600080fd5b84880192505b858310156140de578235848111156140ab5760008081fd5b8801603f81018a136140bd5760008081fd5b6140ce8a8783013560408401613fde565b8352509184019190840190614093565b98975050505050505050565b600080604083850312156140fd57600080fd5b823567ffffffffffffffff8082111561411557600080fd5b61412186838701614036565b9350602085013591508082111561413757600080fd5b5061414485828601614036565b9150509250929050565b600081518084526020808501945080840160005b8381101561418257815161ffff1687529582019590820190600101614162565b509495945050505050565b6001600160a01b038416815260ff831660208201526060604082015260006141b8606083018461414e565b95945050505050565b6020808252825182820181905260009190848201906040850190845b818110156142025783516001600160a01b0316835292840192918401916001016141dd565b50909695505050505050565b60ff81168114613c0857600080fd5b6000806040838503121561423057600080fd5b823561423b8161420e565b9150602083013561424b8161420e565b809150509250929050565b8061080081018310156112e957600080fd5b600080610820838503121561427c57600080fd5b823567ffffffffffffffff81111561429357600080fd5b61429f85828601614256565b9250506142af8460208501614256565b90509250929050565b61ffff81168114613c0857600080fd5b600080600080608085870312156142de57600080fd5b84356142e981613f45565b935060208501356142f9816142b8565b93969395505050506040820135916060013590565b600080600080600060a0868803121561432657600080fd5b853561433181613f45565b9450602086013561434181613f45565b94979496505050506040830135926060810135926080909101359150565b60006020828403121561437157600080fd5b5035919050565b60005b8381101561439357818101518382015260200161437b565b50506000910152565b600081518084526143b4816020860160208601614378565b601f01601f19169290920160200192915050565b6020808252600090610820830183820185845b604081101561440a57601f198785030183526143f884835161439c565b935091840191908401906001016143db565b50919695505050505050565b602081526000613f77602083018461439c565b6000806040838503121561443c57600080fd5b823561444781613f45565b9150602083013561424b81613f45565b60006020828403121561446957600080fd5b8135613f77816142b8565b6000806040838503121561448757600080fd5b823561449281613f45565b9150602083013561424b816142b8565b600080604083850312156144b557600080fd5b82356144c081613f45565b946020939093013593505050565b6020808252825182820182905280516040840181905260009291820190839060608601905b8083101561451757835161ffff1682529284019260019290920191908401906144f3565b509695505050505050565b60006020828403121561453457600080fd5b8135613f778161420e565b60006020828403121561455157600080fd5b813567ffffffffffffffff81111561456857600080fd5b8201601f8101841361457957600080fd5b6115f484823560208401613fde565b60008060008060008060c087890312156145a157600080fd5b86356145ac81613f45565b955060208701356145bc81613f45565b945060408701356145cc81613f45565b959894975094956060810135955060808101359460a0909101359350915050565b7f4e487b7100000000000000000000000000000000000000000000000000000000600052601160045260246000fd5b60007fffffffffffffffffffffffffffffffffffffffffffffffffffffffffffffffff820361464d5761464d6145ed565b5060010190565b80820281158282048414176112e9576112e96145ed565b7f4e487b7100000000000000000000000000000000000000000000000000000000600052601260045260246000fd5b6000826146a9576146a961466b565b500490565b818103818111156112e9576112e96145ed565b6000602082840312156146d357600080fd5b5051919050565b7f4e487b7100000000000000000000000000000000000000000000000000000000600052603260045260246000fd5b6000826147185761471861466b565b500690565b602081526000613f77602083018461414e565b805163ffffffff8116811461474457600080fd5b919050565b6000806000806080858703121561475f57600080fd5b845161476a8161420e565b6020860151909450925061478060408601614730565b915061478e60608601614730565b905092959194509250565b61ffff8181168382160190808211156147b4576147b46145ed565b5092915050565b60008083357fffffffffffffffffffffffffffffffffffffffffffffffffffffffffffffffe18436030181126147f057600080fd5b83018035915067ffffffffffffffff82111561480b57600080fd5b602001915036819003821315613a9c57600080fd5b8183823760009101908152919050565b600181811c9082168061484457607f821691505b60208210810361487d577f4e487b7100000000000000000000000000000000000000000000000000000000600052602260045260246000fd5b50919050565b601f8211156114af57600081815260208120601f850160051c810160208610156148aa5750805b601f850160051c820191505b8181101561393b578281556001016148b6565b67ffffffffffffffff8311156148e1576148e1613f7e565b6148f5836148ef8354614830565b83614883565b6000601f84116001811461494757600085156149115750838201355b7fffffffffffffffffffffffffffffffffffffffffffffffffffffffffffffffff600387901b1c1916600186901b17835561329c565b600083815260209020601f19861690835b828110156149785786850135825560209485019460019092019101614958565b50868210156149b3577fffffffffffffffffffffffffffffffffffffffffffffffffffffffffffffffff60f88860031b161c19848701351681555b505060018560011b0183555050505050565b60007f7fffffffffffffffffffffffffffffffffffffffffffffffffffffffffffffff820361464d5761464d6145ed565b60008251614a08818460208701614378565b9190910192915050565b808201808211156112e9576112e96145ed565b8082018281126000831280158216821582161715614a4557614a456145ed565b505092915050565b808202600082127f800000000000000000000000000000000000000000000000000000000000000084141615614a8557614a856145ed565b81810583148215176112e9576112e96145ed565b81810360008312801583831316838312821617156147b4576147b46145ed565b600060208284031215614acb57600080fd5b8151613f778161420e565b60007f80000000000000000000000000000000000000000000000000000000000000008203614b0757614b076145ed565b507fffffffffffffffffffffffffffffffffffffffffffffffffffffffffffffffff0190565b60008351614b3f818460208801614378565b835190830190614b53818360208801614378565b01949350505050565b60008060008060808587031215614b7257600080fd5b8451614b7d81613f45565b6020860151909450614b8e816142b8565b6040860151606090960151949790965092505050565b600060208284031215614bb657600080fd5b81518015158114613f7757600080fd5b7f4e487b7100000000000000000000000000000000000000000000000000000000600052602160045260246000fdfea164736f6c6343000813000a",
  "linkReferences": {},
  "deployedLinkReferences": {}
}